:100000000C9469060C94B0060C94B0060C94B006DF
:100010000C94B0060C94B0060C94B0060C94B00688
:100020000C94B0060C94B0060C94492A0C941B2B2B
:100030000C945B1A0C94B0060C94B0060C94B006A9
:100040000C94B0060C94B0060C94B0060C94B00658
:100050000C94B0060C94FB1A0C94B0060C94B006E9
:100060000C94B0060C94B0060C94B0060C94B00638
:100070000C94B0060C94B0060C94B0060C94B00628
:100080000C94B0060C94B0060C94B0060C94B00618
:100090000C94B0060C94B0060C94B0060C94B00608
:1000A0000C94B0060C94B0060C94B006F60FF60F44
:1000B0002810281075109310EB11EB11D5106A1150
:1000C0007B117B11DB11EB11EB11E4117112711239
:1000D000831283127A1283128312831271127112A5
:1000E0007F12831283127F12882BAF2BA72CAF2B8A
:1000F000A72CFB2B1E2CA72C752C842C25303258BA
:100100003A20253038620A000A722F6320303132DB
:1001100033343536370A001F0014001A0016000465
:10012000001D001B0006002000210015000800072C
:1001300000090019000500220023001C0017000A16
:10014000000B00110000001E0029002B00E000E160
:1001500000E20001512C002400250018000C000EC4
:10016000000D0010000000310035002A002800E3D7
:1001700000E500E600E4002600270012001300332B
:10018000000F00360000002D002E0030002F00343C
:10019000003800370000003B0001000100010001B1
:1001A000000100010001003C003D000100010001D0
:1001B000000100010001003E003F000100010001BC
:1001C0000050004A0000003A000100010001000157
:1001D0000001000100010040004100010001005247
:1001E0000051004D000000490001004C00010001D9
:1001F0000001000100010042004300010001000174
:10020000004F000100000044004500010001000112
:100210000001000100000044454255473A2064694E
:100220007361626C65642E0A0044454255473A206A
:10023000656E61626C65642E0A000A0025303258D2
:1002400020006B6579626F6172645F7265706F72B6
:10025000743A20000A0025303258006B6579626FCD
:100260006172645F7365745F6C65643A2000646FEB
:100270006E652E0A00626F6F746D6167696320732B
:1002800063616E3A202E2E2E2000290A002575006B
:100290002F002575005D28002564002000256400DE
:1002A000200025640020002564007C0025303258A1
:1002B000006D6F7573656B6579205B62746E7C7819
:1002C0002079207620685D287265702F61636C2923
:1002D0003A205B006D6B5F776865656C5F74696D74
:1002E000655F746F5F6D6178203D2025640A006D45
:1002F0006B5F776865656C5F6D61785F737065656E
:1003000064203D2025640A006D6B5F74696D655F34
:10031000746F5F6D6178203D2025640A006D6B5F0E
:100320006D61785F7370656564203D2025640A0007
:100330006D6B5F696E74657276616C203D2025641B
:100340000A006D6B5F64656C6179203D2025640A4D
:10035000006D6B5F776865656C5F74696D655F7470
:100360006F5F6D6178203D2025640A006D6B5F77BB
:100370006865656C5F6D61785F7370656564203D6D
:100380002025640A006D6B5F74696D655F746F5F33
:100390006D6178203D2025640A006D6B5F6D61788A
:1003A0005F7370656564203D2025640A006D6B5F96
:1003B000696E74657276616C203D2025640A006D5B
:1003C0006B5F64656C6179203D2025640A000A003A
:1003D000257500363A20776865656C5F74696D65D0
:1003E0005F746F5F6D61783A20000A0025750035F3
:1003F0003A20776865656C5F6D61785F73706565DD
:10040000643A20000A00257500343A2074696D654D
:100410005F746F5F6D61783A20000A0025750033C4
:100420003A206D61785F73706565643A20000A0058
:10043000257500323A20696E74657276616C286D9C
:1004400073293A20000A00257500313A2064656C52
:100450006179282A31306D73293A20000A092D204C
:1004600056616C756573202D0A004D3E004D256464
:100470003E20003F007365742064656661756C748E
:100480000A00433E200077686572652064656C74DD
:10049000613A20637572736F723D25642C20776812
:1004A00065656C3D25640A53656520687474703A0F
:1004B0002F2F656E2E77696B6970656469612E6F89
:1004C00072672F77696B692F4D6F7573655F6B6509
:1004D00079730A000A092D204D6F7573656B657974
:1004E000202D0A4553432F713A09717569740A31F9
:1004F0003A0964656C6179282A31306D73290A32B2
:100500003A09696E74657276616C286D73290A33D5
:100510003A096D61785F73706565640A343A0974ED
:10052000696D655F746F5F6D61780A353A09776848
:1005300065656C5F6D61785F73706565640A363AF6
:1005400009776865656C5F74696D655F746F5F6D71
:1005500061780A0A703A097072696E742076616C6B
:100560007565730A643A097365742064656661751C
:100570006C74730A75703A092B310A646F776E3A9E
:10058000092D310A706775703A092B31300A70678E
:10059000646F776E3A092D31300A0A7370656564AD
:1005A000203D2064656C7461202A206D61785F7342
:1005B00070656564202A2028726570656174202F3B
:1005C0002074696D655F746F5F6D6178290A003F03
:1005D000004D3E2000433E20004C25640A00746913
:1005E0006D65725F72656164333228293A20253067
:1005F000346C580A006B6579626F6172645F69647C
:100600006C653A2025580A006B6579626F617264E7
:100610005F70726F746F636F6C3A2025580A0068C0
:100620006F73745F6B6579626F6172645F6C656430
:100630007328293A2025580A000A092D205374618D
:10064000747573202D0A004743433A20352E342E0B
:1006500030204156522D4C4942433A20322E302E02
:1006600030204156525F415243483A2061767235FC
:100670000A004F5054494F4E533A204C55464120A2
:10068000424F4F544D41474943204D4F5553454BE1
:1006900045592045585452414B455920434F4E53DC
:1006A0004F4C4520434F4D4D414E44203430393658
:1006B0000A004255494C443A202262653733376478
:1006C00022202831383A33323A3435204D617220B5
:1006D00032302032303230290A005649443A203034
:1006E000784645454428712E6D2E6B29205049448B
:1006F0003A203078434146452848484B42206D6FA8
:100700006429205645523A203078303130340A007E
:10071000444553433A20712E6D2E6B206B657962F0
:100720006F617264206669726D7761726520666FB1
:10073000722048484B420A000A092D205665727300
:10074000696F6E202D0A000A092D20436F6E736FAA
:100750006C65202D0A4553432F713A0971756974F0
:100760000A6D3A096D6F7573656B65790A000A0940
:100770002D204D61676963202D0A443A0944656262
:100780007567204D65737361676520546F67676C8B
:10079000650A583A094D617472697820446562753A
:1007A00067204D6F646520546F67676C65202D204E
:1007B00053686F77206B657970726573736573200A
:1007C000696E206D617472697820677269640A4B82
:1007D0003A094B6579626F6172642044656275679E
:1007E00020546F67676C65202D2053686F77206BEE
:1007F00065797072657373207265706F72740A4DDB
:100800003A094465627567204D6F75736520546FB2
:1008100067676C650A563A0956657273696F6E0AA6
:10082000533A095374617475730A433A0941637406
:10083000697661746520436F6E736F6C65204D6FD0
:1008400064650A46312D4631303A0953776974633D
:100850006820746F204C6179657220302D39202812
:10086000463130203D204C30290A302D393A095389
:10087000776974636820746F204C617965722030E9
:100880002D390A47524156453A09537769746368CE
:1008900020746F204C6179657220302028616C745F
:1008A00065726E617465290A423A094A756D702055
:1008B000746F20426F6F746C6F616465720A455388
:1008C000433A094A756D7020746F20426F6F746CE3
:1008D0006F616465722028616C7465726E61746505
:1008E000290A453A095072696E7420454550524FA5
:1008F0004D2053657474696E67730A4253504143C7
:10090000453A09436C65617220454550524F4D0A86
:10091000000A002575002E6E6B726F3A20000A00E7
:100920002575002E737761705F6261636B736C6114
:1009300073685F6261636B73706163653A20000A7C
:10094000002575002E737761705F67726176655F51
:100950006573633A20000A002575002E6E6F5F678D
:1009600075693A20000A002575002E737761705F63
:1009700072616C745F726775693A20000A002575B0
:10098000002E737761705F6C616C745F6C67756962
:100990003A20000A002575002E737761705F72633C
:1009A000746C5F726775693A20000A002575002E25
:1009B000737761705F6C63746C5F6C6775693A2004
:1009C000000A002575002E636170736C6F636B5FA6
:1009D000746F5F636F6E74726F6C3A20000A00254B
:1009E00075002E737761705F636F6E74726F6C5FEA
:1009F000636170736C6F636B3A20000A00253032BC
:100A000058006B65796D61705F636F6E6669672E04
:100A10007261773A20000A002575002E6D6F75739C
:100A2000653A20000A002575002E6B6579626F61BA
:100A300072643A20000A002575002E6D6174726997
:100A4000783A20000A002575002E656E61626C659B
:100A50003A20000A00253032580064656275675FED
:100A6000636F6E6669672E7261773A20000A00250F
:100A7000750064656661756C745F6C617965723A66
:100A800020003F000A6D6F7573653A206F66660A35
:100A9000000A6D6F7573653A206F6E0A000A6B6508
:100AA00079626F6172643A206F66660A000A6B654C
:100AB00079626F6172643A206F6E0A000A6D617428
:100AC0007269783A206F66660A000A6D617472690D
:100AD000783A206F6E0A000A64656275673A206F83
:100AE00066660A000A64656275673A206F6E0A00DE
:100AF0000A0A4A756D70696E6720746F20626F6FA5
:100B0000746C6F616465722E2E2E2000433E2000AF
:100B1000436C656172696E6720454550524F4D0ABE
:100B2000006565636F6E6669673A0A005B735D0016
:100B30004B6579626F6172642073746172742E0AFE
:100B4000005B575D005B535D005B525D005B445D85
:100B5000005B435D000403300000001203480048BE
:100B6000004B00420020006D006F00640000000C8C
:100B70000371002E006D002E006B000000040309BD
:100B80000409025B00030100A0FA0904000001034C
:100B90000101000921110100012240000705810324
:100BA00008000A09040100010300000009211101E5
:100BB00000012281000705820320000A09040200C7
:100BC0000203000000092111010001222200070593
:100BD0008303200001070503032000011201100117
:100BE00000000008EDFEFECA040101020301063107
:100BF000FF0974A1010975150026FF0095207508ED
:100C000081020976150026FF00952075089102C023
:100C100005010902A10185020901A10005091901C7
:100C200029051500250195057501810295017503BA
:100C300081010501093009311581257F950275086B
:100C4000810609381581257F950175088106050CF7
:100C50000A38021581257F950175088106C0C005F7
:100C6000010980A101850319012AB700150126B7E2
:100C700000950175108100C0050C0901A1018504D2
:100C800019012AA002150126A00295017510810004
:100C9000C005010906A101050719E029E71500258E
:100CA00001950875018102950175088101050719F3
:100CB0000029FF150026FF0095067508810005082C
:100CC0001901290595057501910295017503910199
:100CD000C00011241FBECFEFDAE0DEBFCDBF04B6E7
:100CE00003FE27C08091680290916902A0916A0278
:100CF000B0916B028730904BA740B04BD1F410926B
:100D000068021092690210926A0210926B0214BE7D
:100D100084B7877F84BF0FB6F894A8958091600050
:100D2000886180936000109260000FBEE0E0F8E3FD
:100D3000099511E0A0E0B1E0E0EBFAE502C0059012
:100D40000D92A039B107D9F722E0A0E9B1E001C0C6
:100D50001D92A836B207E1F70E946F270C94562D1A
:100D60000C940000FF93EF93E0919001F0919101BA
:100D7000309709F00995EF91FF910895FC01859155
:100D8000803011F0EFDFFBCF0895FF27E0E230E283
:100D900047FF0CC0419597FF09C0EDE26095709543
:100DA00080959095611D711D811D911D27FF02C0C9
:100DB000219530E350E2AA27660F771F881F991FFD
:100DC000AA1FA41710F0A41B63955A95A9F7AA307F
:100DD00008F0A95FA05DAF93F395611571058105DA
:100DE000910541F7ED3211F4EF93F395F21718F4F2
:100DF0003F93F395FBCF8F91B5DFFA95E1F7089517
:100E0000E991F9918591803021F0853219F0AADFBE
:100E1000F9CF089520E0E89455915532C1F350334D
:100E200011F4689455915A3348F4505390F3220FBB
:100E3000022E220F220F200D250FF4CF0EF4219544
:100E400089919991533619F3533729F1533559F153
:100E5000BC0188279927E8945C3621F489919991FF
:100E600068945591543639F446EF7EF077FF0DC003
:100E70008FEF9FEF0AC055374AE039F0583540E10F
:100E800021F0523642E009F00895FF93EF937DDFA1
:100E9000EF91FF91B7CFFF93EF93FC0181918030E9
:100EA000B9F360DFFBCFFF93EF9368DFF1CFDF9300
:100EB000CF93CDB7DEB72596A3DFCF91DF9108950D
:100EC0008FEF84B980E485B957985F9A2E9A2F984E
:100ED000EAE9F1E0119281E0E23AF807D9F7E2E9B4
:100EE000F1E08AE991E011928E179F07E1F78AE914
:100EF00091E09093A5018093A40182E991E0909301
:100F0000A3018093A201089508950C948407EF92A1
:100F1000FF920F931F93CF93DF938091A201909143
:100F2000A3012091A4013091A5013093A301209346
:100F3000A2019093A5018093A401C0E0D0E0EE242B
:100F4000E394F12C0FEF10E020E030E085B1807CDD
:100F50008C2BA90193E0440F551F9A95E1F7842B40
:100F600085B98AE18A95F1F700C0E091A201F0917C
:100F7000A301EC0FFD1F808190E0022E02C0959529
:100F800087950A94E2F780FD2F9A95E39A95F1F7F9
:100F90000000E6B52E988AE18A95F1F700C04091ED
:100FA000A4015091A501DA01AC0FBD1F4F9B0AC0EF
:100FB000C701022E01C0880F0A94EAF780959C9120
:100FC000892308C06C91C701022E01C0880F0A94C2
:100FD000EAF7862B8C9386B56E2F70E08E1728F07B
:100FE00086B590E0861B970B06C0E6B5C801861B48
:100FF000970B8E0F911D069758F0E091A201F0918A
:10100000A301EC0FFD1F8081FA01EC0FFD1F80830F
:101010009AE19A95F1F700C02F982E9A8BE291E011
:101020000197F1F700C000002F5F3F4F28303105D6
:1010300009F08CCFA091A401B091A501AC0FBD1F08
:10104000E091A201F091A301EC0FFD1F9C91808122
:10105000981751F00E94991A6093A6017093A70106
:101060008093A8019093A9012196C830D10509F079
:101070006BCF80915F02853021F080915F028111FA
:1010800011C06091A6017091A7018091A801909173
:10109000A9010E94CF1A613177428105910510F0B4
:1010A0000E94211A0E94D20881E0DF91CF911F9106
:1010B0000F91FF90EF9008952091A4013091A50128
:1010C000F901E80FF11D808108950F931F93CF93CD
:1010D000DF9388E091E00E94BE06C0E0D0E00CEF14
:1010E00010E0E091A401F091A501EC0FFD1F8081BB
:1010F0000E94F8181F928F93DF93CF931F930F9343
:101100000E94570721960F900F900F900F900F900D
:101110000F90C830D10529F7DF91CF911F910F9122
:1011200008950895089581E0089581E008950C944C
:1011300095081F93CF93DF9300D000D01F92CDB7B7
:10114000DEB749835A836B832091BD0189819A81DF
:10115000211112C0662349F00E94C117182F682F71
:1011600089819A810E946A1703C00E949517182FDF
:1011700069817A81812F04C00E94C11769817A81B7
:101180000F900F900F900F900F90DF91CF911F91C4
:101190000C944F09FC0140815181628173818481EB
:1011A0000C9499080C94850708950C94D40881E058
:1011B00008950C94D708CF93C82F0E94D5088C2F80
:1011C0000E94D908CF91089508950E945F120E944D
:1011D000E4082FEF84E39CE0215080409040E1F749
:1011E00000C000000C94211B0F931F93CF93DF933B
:1011F000EC010E94CA088C01BE010E949708882356
:1012000009F442C0BE01C8010E94CF0B8823E1F15E
:10121000BE01C8010E94100C8823B1F1BE01C801B3
:101220000E943B0D882381F18A81882331F10130AE
:101230008CE5180751F00E3D8CE51807D9F0011523
:101240001C45D9F40E94E5081FC080913302C82FC5
:10125000C095C170C0FB80F980933302CC2329F084
:1012600089E292E00E94BE060FC087E192E00E94F0
:10127000BE060BC00E94B41907C0CE01DF91CF910A
:101280001F910F910C949308C0E08C2FDF91CF91A8
:101290001F910F91089580E090E008950895E72F41
:1012A000F0E098E0899FE00DF11D112483E0EE0F3E
:1012B000FF1F8A95E1F7E60FF11DEE0FFF1FE95EB4
:1012C000FE4F859194910895880F991FFC01E65C6B
:1012D000FD4F859194910895CF93DF930E944F091C
:1012E0000E94840AEC018115904508F041C0C115A7
:1012F00080E4D80708F0D1C0C83ED10510F5C03E43
:10130000D10508F0FDC0C83AD10578F4C53AD10539
:1013100008F0A2C0C130D10509F4F2C008F4EEC053
:10132000C430D10508F0ECC0E9C0CF3BD10508F4CA
:101330009BC0C03CD10508F4E1C0CE01805C91099E
:101340009EC0C11590E2D90758F4C11521E0D2071B
:1013500008F0D6C0C03FD10508F4D0C0D065D0C0D9
:10136000C11580E3D80708F08EC0CE019F7087C0FA
:10137000C11595E5D90708F043C0C11524E5D2078A
:1013800008F0A2C0C11582E5D80708F5C11591E59E
:10139000D90708F085C0CE0174E0969587957A95B7
:1013A000E1F783709C2F937021E030E002C0220FA0
:1013B000331F9A95E2F73C68382BCF70C695C695D7
:1013C00080E2C89FE0011124C22BD32B99C09E015B
:1013D000237033278C2F86958695C115D34508F049
:1013E00064C0C1E0D0E002C0CC0FDD1F2A95E2F757
:1013F00020E2829FC0011124C82BD92BDC6880C059
:10140000C11529E5D207A0F4C11588E5D80708F071
:1014100060C0C11596E5D90708F070C08C2F0E94F6
:10142000180B8F71C82FD0E0DC2FCC27D06268C09A
:10143000C1152AE5D20708F451C0CE019056811596
:10144000904208F05BC08D2F8F710E94180BDD2732
:10145000D0628F71D82B54C0C55AD0E0CD5BDE4F1F
:10146000C881D0E0D0644CC0C85AD0E0CC0FDD1F9A
:10147000CB5EDE4F0990D881C02DD46441C00E945C
:101480006409EC013DC0CE019927D3FF03C0EC01F4
:10149000D86C36C0EC01D06C33C0DF70D06A30C07D
:1014A000DC2FCC27C16FD06A2BC0C1E0D0E002C0D6
:1014B000CC0FDD1F2A95E2F720E2829FC0011124A4
:1014C000C82BD92BDA681CC0DC2FCC27C46FD06A9C
:1014D00017C0DC2FCC27C06FD06A12C08C2F8F7042
:1014E0000E94180B94E0D695C7959A95E1F7CF70B6
:1014F000D0E0DC2FCC27D069C82B02C0C0E0D0E000
:10150000CE01DF91CF9108958238910569F1B0F451
:101510008133910509F46DC048F48932910509F4CD
:1015200063C08A32910509F469C008958533910535
:1015300009F455C089339105B9F00895833E9105AA
:1015400069F138F4803E9105B1F0823E910509F1D0
:101550000895863E9105A9F1873E9105B9F1843E33
:10156000910509F064C023C02091590220FD4FC0AD
:1015700021FD4DC008958091590280FD44C08091A5
:101580005A0280FF44C08091590284FD42C083EE1C
:101590004DC08091590282FF38C0F5CF8091590229
:1015A00082FD33C080915A0280FD31C0ECCF809122
:1015B0005A0281FF32C08091590284FD2AC087EE11
:1015C00035C08091590283FF26C0F5CF8091590222
:1015D00083FD21C080915A0281FD1FC0ECCF809114
:1015E000590285FD1CC01DC08091590285FD19C09E
:1015F00016C08091590286FD16C017C0809159020D
:1016000086FD13C010C089E311C082EE0FC080EECA
:101610000DC080E00BC086EE09C084EE07C089E2F1
:1016200005C085E303C08AE201C081E390E008952C
:101630009091590292FF0DC0282F2871283019F47B
:10164000877F846006C0282F2471243011F48B7F9B
:10165000886093FF0DC0282F2871283119F4877EE8
:10166000846106C0282F2471243111F48B7E886197
:1016700020915A0220FF0DC0382F3871383019F4EC
:10168000877F816006C0382F3171313011F48E7F31
:10169000886021FF0DC0282F2871283119F4877E1A
:1016A000816106C0282F2171213111F48E7E88615D
:1016B00094FD877E08950F931F93CF93DF93C62FDA
:1016C000D42F122FFC0182818823C9F06093AC01D2
:1016D0000E948D1A9093AB018093AA0180E28C0F37
:1016E000883008F057C0C77081E001C0880FCA95E4
:1016F000EAF7DF91CF911F910F910C94B60F809173
:10170000AC01681330C08091AA019091AB010E9496
:10171000A51A883C910538F500E20D0FCD17B9F0F8
:1017200080E28C0F883040F4C77081E001C0880FE0
:10173000CA95EAF70E94BD0F083028F581E09D2F79
:10174000977001C0880F9A95EAF70E94B60F812F13
:101750000E94A30F0830F0F4D77081E001C0880F19
:10176000DA95EAF70AC080E28C0F883098F4C770E7
:1017700081E001C0880FCA95EAF7DF91CF911F91F0
:101780000F910C94BD0F812FDF91CF911F910F917D
:101790000C94A30FDF91CF911F910F9108959C019D
:1017A000CB01233F4CE53407F9F078F4283DFCE504
:1017B0003F07B9F0293D4CE5340711F1273D3C4581
:1017C00031F526E241EE61EE1EC0253FFCE53F0704
:1017D00099F070F0263F3C45D1F427E245EE66EEE5
:1017E00012C027E245EE0EC026E241EE60EE0BC0CD
:1017F00027E245EE64EE07C026E241EE62EE03C04A
:1018000028E241E065EE0E945B0B80E00895FC0158
:101810008281882319F01092AC01089581E0089527
:10182000CF93DF93EC01FB018281882309F41FC170
:10183000C230FCE5DF0708F41BC1C6319CE5D907BF
:1018400038F09E012A5F3C452930310508F010C16F
:101850000E94271990935A0280935902C031ECE5F7
:10186000DE0709F4C3C008F041C0C8308CE5D807D2
:1018700009F49AC0F0F4C430ECE5DE0709F487C03F
:1018800068F4C2308CE5D80709F477C0C330DC4572
:1018900009F0E3C080915902826076C0C630ECE561
:1018A000DE0709F46EC008F07BC0809159028860A1
:1018B0006BC0CC308CE5D80709F485C068F4CA3019
:1018C000ECE5DE0709F474C008F079C00E945F12ED
:1018D00080915902806858C0CE308CE5D80709F451
:1018E00076C008F07FC0809159028BC0CB3FECE5F9
:1018F000DE0709F44FC018F5C3318CE5D80709F4A9
:101900007DC078F4C131ECE5DE0709F473C0C23163
:10191000DC4509F0A2C00E945F12809159028F77C6
:1019200033C0C5318CE5D80709F472C008F486C00D
:10193000CA3FDC4509F091C080915A023EC0CF3FBA
:10194000FCE5DF0709F45FC058F4CD3F9CE5D907FB
:1019500009F444C008F43FC080915A0282602DC04F
:10196000C130FDE5DF0709F475C008F45DC0C23081
:10197000DD4509F072C080E06EC08091590281603F
:1019800003C08091590280618093590266C08091A2
:10199000590211C080915A02826080935A025DC040
:1019A000809159028062F0CF809159028064ECCF1F
:1019B0008091590288608460E7CF8160EECF80918A
:1019C00059028E7FE1CF809159028D7FDDCF8091CA
:1019D0005902877FD9CF80915A0218C080915A024C
:1019E0008D7FDBCF809159028F7ECECF80915902BF
:1019F0008F7DCACF809159028F7BC6CF80915902CB
:101A0000877F8B7FC1CF80915A028D7F8E7FC5CF1C
:101A10008091590282FB222720F991E0922790FBC6
:101A200082F990FB83F9B0CF80915A02982F90955C
:101A300091708E7F892B90FB81F9AFCF0E945F124E
:101A40008091590287FB222720F991E0922790FB91
:101A500087F99ACF81E00E94B6198091590290913E
:101A60005A020E9438190E945F1280E001C081E092
:101A7000DF91CF910895CF93DF9386319C4541F557
:101A8000EB010E944218982F8A8120910001309129
:101A90000101882379F09A7A81E009F480E080934B
:101AA000AD01911102C069E201C065E3C9010E9464
:101AB000FD190AC08091AD01811102C069E201C027
:101AC00065E3C9010E94FF190E94901880E001C0DF
:101AD00081E0DF91CF9108959093B3018093B2019B
:101AE0000895E091B201F091B301309721F0019097
:101AF000F081E02D099480E00895EF92FF920F931A
:101B00001F93CF93DF93E091B201F091B30130972F
:101B1000B1F18C010280F381E02D099580913302AF
:101B200082FF2DC080FF04C082E492E00E94BE06C6
:101B3000E80118E08CE3E82E82E0F82E8091330271
:101B400080FF0BC088811F928F93FF92EF920E94BB
:101B500057070F900F900F900F9011502196111171
:101B6000EDCF8091330280FF0AC08AE392E0DF91DB
:101B7000CF911F910F91FF90EF900C94BE06DF91D3
:101B8000CF911F910F91FF90EF900895E091B201D6
:101B9000F091B301309739F022E0DC012C930480FE
:101BA000F581E02D099408952091B0013091B101A3
:101BB0002817390771F09093B1018093B001E0913B
:101BC000B201F091B301309721F00680F781E02D4A
:101BD000099408952091AE013091AF01281739077B
:101BE00071F09093AF018093AE01E091B201F0915A
:101BF000B301309721F00084F185E02D0994089518
:101C000085B7806885BF85B7806885BF08950895CA
:101C10000C94070E0C94080E0C94070E0C94070EEF
:101C20000E94000E0E940C0E0C940A0E81E0089592
:101C30000E94841A0E9460070E94891B0C940E0E59
:101C4000CF93C82F8091330282FF1EC080FF04C053
:101C50008BE592E00E94BE068091330280FF0CC0AB
:101C60001F92CF9386E592E09F938F930E94570730
:101C70000F900F900F900F908091330280FF04C05F
:101C800084E592E00E94BE068C2FCF910C94DB0875
:101C9000AF92BF92CF92DF92EF92FF920F931F937A
:101CA000CF93DF93CDB7DEB72A970FB6F894DEBF98
:101CB0000FBECDBF0E9487070E94160E811111C072
:101CC0008FEF89838A831B820E948D1A8160782F0F
:101CD0009D838C8349815A816B818D810E94E00EA6
:101CE00040C085EBA82E81E0B82E00E010E0C02EA9
:101CF000802F0E945C08E82EF501D1905F01D82664
:101D000031F40F5F1F4F0830110589F7D9CF80914B
:101D1000330281FD0E94650880E0FF24F3949D2D2D
:101D20009F21D1F08E83CF82EF2081E009F480E003
:101D300088870E948D1A8160782F9A8789874E81C3
:101D40005F8168858A850E94E00EF801EB54FE4FA2
:101D50008081F826F08205C08F5FFF0C8830F9F68D
:101D6000D0CF0E94C71E0E94710D9091B4018917B7
:101D7000B1F00E94710D8093B4012A960FB6F894C9
:101D8000DEBF0FBECDBFDF91CF911F910F91FF90AE
:101D9000EF90DF90CF90BF90AF900C94200E2A96DA
:101DA0000FB6F894DEBF0FBECDBFDF91CF911F916C
:101DB0000F91FF90EF90DF90CF90BF90AF9008957C
:101DC000CF93DF93CDB7DEB72B970FB6F894DEBF76
:101DD0000FBECDBF4F83588769877A878B87DE0117
:101DE000119686E0FD0111928A95E9F785E0FE01E2
:101DF000379601900D928A95E1F749815A816B815E
:101E00007C818D819E810E942F152B960FB6F894B0
:101E1000DEBF0FBECDBFDF91CF910895FC01808161
:101E200091810E9403180895CF93882309F455C027
:101E3000C82F8CEF8C0F813AF8F48C2F0E94E2238C
:101E400081114BC06C2F80910001909101010E9483
:101E5000C719882349F06C2F8091000190910101EE
:101E60000E94FF190E9490186C2F809100019091A0
:101E700001010E94FD190CC080E28C0F883058F4DB
:101E8000C77081E001C0880FCA95EAF70E94451823
:101E9000CF910C949018EBE5EC0FE33040F4F0E0B8
:101EA000EC58FE4F808190E0CF910C94D40DE8E582
:101EB000EC0FE73150F4F0E0EE0FFF1FEA5BFE4F4E
:101EC00080819181CF910C94EA0DC03F30F08C2F2E
:101ED0000E944D1DCF910C943A1ECF9108958823F6
:101EE00089F19CEF980F913A40F4682F809100019E
:101EF000909101010E94FF190DC090E2980F983057
:101F000058F4877091E001C0990F8A95EAF7892FFC
:101F10000E944B180C9490189BE5980F933020F476
:101F200080E090E00C94D40D98E5980F973120F460
:101F300080E090E00C94EA0D803F20F00E94B51DF7
:101F40000C943A1E0895CF93C82F0E94140FC933E2
:101F500049F42FEF87EE93E0215080409040E1F765
:101F600000C000008C2FCF910C946F0F882321F0BC
:101F70000E9445180C9490180895882321F00E941F
:101F80004B180C9490180895CF92DF92EF92FF9225
:101F90000F931F93CF93DF937C01062FC72FFC0174
:101FA000158112951F70D281D1110E9462180E9472
:101FB0003B18882379F0DD2369F080E2800F8830B8
:101FC00048F082E00E94DA180E943B1891E0D82E77
:101FD000D92601C0D12CCC2EC2948FE0C8228C2DE2
:101FE00090E0FC01EA5AFF4F0C94FA2C8C2F807F72
:101FF000CF70882311F0C295C07FDD2399F0CC23E8
:1020000009F4C4C180E2800F883010F0011104C0CF
:102010008C2F0E94451803C08C2F0E9455180E94D7
:102020009018B4C1802F0E946F0FCC2309F4D3C144
:1020300080E2800F883010F0011104C08C2F0E94C4
:102040004B1803C08C2F0E945B180E949018C3C1CC
:102050008C2F807FCF70803211F0C295C07F00231B
:1020600019F00130C9F022C0DD2371F0112341F0D5
:10207000113031F40E9475188C2B0E947D18ABC171
:102080000E9475188C2B1DC0112319F0113009F412
:10209000A2C10E94861825C0DD2321F0163008F069
:1020A0009AC10EC0153008F096C11BC0DD2361F047
:1020B000112331F0F701858180FF68C18F7085831E
:1020C0008C2F0E94B60F87C1112359F0093309F0F4
:1020D0006EC1FFEF27EE83E0F15020408040E1F732
:1020E00064C18C2F0E94BD0F76C18C2F869586957A
:1020F000837019F0813061F06EC1DD2321F0802FF3
:102100009C2F937002C080E090E00E94D40D6BC1C0
:10211000DD2321F0802F9C2F937002C080E090E09F
:102120000E94EA0D60C1DD23F9F0053F51F0063F42
:1021300071F0043FA9F480915302909154028160A0
:102140000BC08091530290915402826005C080912F
:1021500053029091540284609093540280935302EE
:10216000802F0E944D1D1EC0053F51F0063F71F0AB
:10217000043FA9F480915302909154028E7F0BC0CA
:1021800080915302909154028D7F05C0809153023B
:10219000909154028B7F9093540280935302802F2E
:1021A0000E94B51D0E943A1E1EC18C2F837009F03B
:1021B00045C0D11114C1402F429546954770440F38
:1021C000440F602F6F70862F90E0A0E0B0E0042EE7
:1021D00004C0880F991FAA1FBB1F0A94D2F704FFDF
:1021E00010C00FE010E020E030E004C0000F111F2D
:1021F000221F331F4A95D2F70095109520953095F0
:1022000003C000E010E09801C695C695C370BC01FC
:10221000CD01602B712B822B932BC23049F058F4E7
:10222000C13019F00E948016DAC00E946E16D7C025
:102230000E949216D4C00E946C16D1C0DD2319F002
:102240008C2F817001C08695882309F4C8C0402F67
:10225000429546954770440F440F602F6F70862F4C
:1022600090E0A0E0B0E0042E04C0880F991FAA1FE0
:10227000BB1F0A94D2F704FF10C00FE010E020E06B
:1022800030E004C0000F111F221F331F4A95D2F700
:10229000009510952095309503C000E010E098015E
:1022A000C695C695C370BC01CD01602B712B822BE6
:1022B000932BC23049F058F4C13019F00E944517F1
:1022C0008EC00E9433178BC00E94571788C00E948F
:1022D000A61685C0CF70DD2339F08C2F0E94CC1656
:1022E000802F0E94B60F7BC0802F0E94BD0F8C2FC5
:1022F0000E94ED1674C0023F01F128F4003F41F046
:10230000013FA1F03FC0033FF9F0043F39F13AC06B
:10231000DD2341F0153008F05EC08C2F8F710E94D4
:10232000121759C0163008F056C0F7CFDD2339F028
:102330008C2F8F710E94CC164EC0DD23C9F38C2FD9
:102340008F710E94ED1647C0DD2329F08C2F8F710D
:102350000E94B71640C00E94B2163DC0DD2349F06E
:10236000CF718C2F0E94CC1663E08C2F0E94C51871
:1023700032C081E00E94DA18123068F182E00E94D7
:10238000DA1829C0DD2331F0112391F2802F0E9449
:10239000140F21C0112399F2093349F49FEFE7EE9E
:1023A000F3E09150E040F040E1F700C00000802FE2
:1023B0000E946F0F10C04C2F4F70602FC7010E94FA
:1023C0004B090E94DD150FC04C2F4F70602FC701C5
:1023D0000E944E0908C088EF8C0D843020F40E94C2
:1023E000710D0E94DB08DD20C9F00E94371880FDC6
:1023F00015C0F70112820E9431180E94CC16C70145
:102400000E9417120E943118DF91CF911F910F91F6
:10241000FF90EF90DF90CF900C94ED16DF91CF916D
:102420001F910F91FF90EF90DF90CF9008950F9341
:102430001F93CF93DF93EC01988189812B813C819D
:10244000232B31F08F3F31F481E09F3F19F403C01B
:1024500081E001C080E080FD13C0CE010E94F4083D
:10246000882371F0688179818A810E940E188C011D
:102470000E9469170E945A16B801CE010E94C40F2B
:10248000DF91CF911F910F9108950E9462180E94D1
:1024900072180E9490180E94E61F0E943A1E80E067
:1024A00090E00E94D40D80E090E00C94EA0D8091C1
:1024B0000001909101010E94011A0C9445120E94A2
:1024C00052180C945712E92FE295EF704E2F50E0FE
:1024D000FA013297EE30F105B0F4EA59FF4F0C944F
:1024E000FA2C803F91F018F4883E68F40EC0843FC7
:1024F00051F40BC0883E48F0813F29F406C093FB9D
:10250000882780F9089580E0089581E008950E9469
:1025100003180E9463120895CF93DF9300D000D078
:102520001F92CDB7DEB70F900F900F900F900F90C6
:10253000DF91CF910895CF93DF9300D000D000D0EA
:10254000CDB7DEB726960FB6F894DEBF0FBECDBF6F
:10255000DF91CF9108951F93CF93DF93C091BE0178
:1025600016E08091BF01C81799F0D0E01C9FF001E0
:102570001D9FF00D1124E054FE4F40815181628176
:102580007381848195810E949B122196C770E9CF47
:10259000DF91CF911F9108954091F0015091F10189
:1025A0006091F2017091F3018091F4019091F50135
:1025B0000C949B12CF938091F50182958F7009F056
:1025C0005FC08091F201882309F45AC08091BE0156
:1025D000B091BF017091F001A091F1014091F30120
:1025E0005091F40191E07F3F09F090E0692FC6E03F
:1025F0008B1709F445C04115510521F0AF3F21F07B
:1026000020E003C021E001C0262F90E020FD35C06E
:10261000C89FF001C99FF00D1124E054FE4F2181A5
:102620002A132BC02081271328C02281211125C005
:10263000238134812417350710F421503109241BDC
:10264000350B283C3105C8F42091F5012F7020612D
:102650002093F50126E0289FF001299FF00D112419
:10266000EB53FE4F80818F708061808380EF91E01B
:102670000E941712CF910C94AB1201968770B8CFBD
:10268000CF910895AF92BF92CF92DF92EF92FF92D7
:102690000F931F93CF93DF93CDB7DEB761970FB63C
:1026A000F894DEBF0FBECDBF8C0185E0F801DE01DE
:1026B0001D9601900D928A95E1F7D8014C911196E3
:1026C0005C9111971296EC903091F0016091F101BC
:1026D0008091F3019091F401009731F06F3F31F454
:1026E00021E03F3F19F403C021E001C020E0B22FF8
:1026F000B170BB2E20FD60C1F801C380D480A090D2
:10270000F201AA2009F4EEC02091F501C816D906FD
:1027100028F0D601A81BB90BCD0104C08095909577
:102720008C0D9D1DFF24F394883C910580F0F12CC5
:10273000207F09F09CC07C2DD98AC88A6E2D89899A
:102740000E948C1280EF91E00E9417122DC1822FFF
:10275000807F09F054C0561314C0431312C0FE2CDE
:10276000E1100FC02F7020612093F5010E94CC1260
:1027700080EF91E00E9417128091F501F8018583A6
:102780005CC1CD2831F05F3F31F481E04F3F19F457
:1027900003C081E001C080E080FD03C081E08E25A0
:1027A00002C080E090E0F82FF170FF2E80FF1CC087
:1027B0008091BE012091BF0136E0821709F41AC151
:1027C00090E0389FF001399FF00D1124E054FE4F46
:1027D0006181561306C06081461303C06281E61210
:1027E00003C001968770E9CFFE2CEE2009F425C1C5
:1027F0008091F50181608093F501F12C1EC1561383
:1028000009C0431307C0E11005C08091F501F8012C
:102810008583A4C04D875E878D859E850E94871223
:10282000882379F1EE2069F12091F501822F8295BC
:102830008F7090E0029774F08091F0019091F10117
:1028400098878F831986DB86CA862C87CE010796E8
:102850000E94171286E0F801A0EFB1E001900D92FE
:102860008A95E1F70E94DA120E94CC120DC0561729
:1028700071F04D875E878D859E850E94871281113C
:102880001AC0C8010E941712FF24F394D6C0431344
:10289000F0CFE110EECF8091F501F8018583C801FA
:1028A0000E94171286E0E0EFF1E0DF011D928A95A9
:1028B000E9F7FA2CC2C0EE2021F32091F501822F16
:1028C00082958F7090E002972CF28091F0019091A8
:1028D000F1019A8389831B82DD82CC822E83CE0113
:1028E0000196B6CFC816D90628F0F601E81BF90BF9
:1028F000CF0104C0809590958C0D9D1D883C91055D
:1029000048F0F12C7C2DD98AC88A6E2D89890E94C5
:102910008C124AC0FE2CEE2009F4B3CF561333C0FC
:10292000431331C02091F50120FD24C0822F8295F0
:102930008F70482F50E041155105E1F0D8011596F0
:102940002C9315974F30510549F08F5F982F929532
:10295000907F822F8F70892B15968C93C8010E94CF
:10296000171286E0F801A0EFB1E001900D928A9570
:10297000E1F73DC086E0F801A0EFB1E001900D92D3
:102980008A95E1F75AC04D875E878D859E850E94A6
:10299000871281115FCF8091F50181608093F501ED
:1029A000C8010E94171249C0E0EFF1E086E0DF01A4
:1029B0001D928A95E9F71BC0EE2009F462CF4D877E
:1029C0005E878D859E850E948712F82E882309F4E4
:1029D00058CF86E0F801A0EFB1E001900D928A9502
:1029E000E1F780EF91E00E940E0F0E94DA120E9440
:1029F000CC1223C04D875E878D859E850E9403186B
:102A0000292F22952F70223028F49F7039F08111E0
:102A100005C00BC0243028F49F7049F4805E8830D4
:102A200020F0C8010E941712BF2CFB2C06C0D80151
:102A300015969C91907F91F7F8CF8F2D61960FB6E8
:102A4000F894DEBF0FBECDBFDF91CF911F910F91E4
:102A5000FF90EF90DF90CF90BF90AF9008951F93BD
:102A6000CF93DF93CDB7DEB72C970FB6F894DEBFC8
:102A70000FBECDBF4F83588769877A878B879C8726
:102A8000CE0107960E9442138823D1F09F8188854A
:102A90002A853B85232B31F08F3F31F481E09F3F26
:102AA00019F403C081E001C080E080FD47C04F8180
:102AB000588569857A858B859C850E949B123EC0CE
:102AC00086E0FE013796DE01119601900D928A95FF
:102AD000E1F7FF81E8856A857B856115710531F035
:102AE000EF3F31F481E0FF3F19F403C081E001C002
:102AF00080E080FD23C02091BF0130E0C901019634
:102B0000877099274091BE0150E084179507F1F135
:102B1000F983EA837D836C8396E0929FD001939F33
:102B2000B00D1124A054BE4FFE01319601900D92BC
:102B30009A95E1F78093BF010E94AB1216E0809155
:102B4000BE019091BF01891771F1189FC001112436
:102B500080549E4F0E944213882329F1E091BE01C8
:102B60001E9FF0011124E054FE4F4081518162818B
:102B70007381848195810E949B128091BE0190E0B7
:102B80000196877099278093BE01D9CF0E945F126A
:102B90001092BF011092BE01E0EFF1E086E0DF018C
:102BA0001D928A95E9F72C960FB6F894DEBF0FBEFA
:102BB000CDBFDF91CF911F910895EF92FF920F93B8
:102BC0001F93CF93DF938C01892B09F46CC0F12CF8
:102BD000EE24E394E8012196F8018491843740F4CF
:102BE000843008F051C0813081F0823019F15BC02F
:102BF000853709F444C0A8F19CE7980F903708F096
:102C000052C08F770E946F0F41C00E5F1F4FFE01B1
:102C1000849190E2980F983050F48770FE2D01C097
:102C2000FF0F8A95EAF78F2F0E94651814C00E9443
:102C3000140F2DC00E5F1F4FFE01849190E2980F7C
:102C4000983060F48770FE2D01C0FF0F8A95EAF777
:102C50008F2F0E946B180E94901819C00E946F0F4E
:102C600016C00E5F1F4FFE01C491CC2381F08FE987
:102C70009FE00197F1F700C00000C150F6CF0E5F52
:102C80001F4FFE01F49003C00E94140F8E018F2D80
:102C9000882309F49FCFEFE9FFE03197F1F700C0F7
:102CA00000008150F5CFDF91CF911F910F91FF90E0
:102CB000EF900895089508950C945B160C945C169B
:102CC0000E945E1660932202709323028093240276
:102CD000909325020C9445120C9460160F931F9349
:102CE00000912202109123022091240230912502AA
:102CF000602B712B822B932B1F910F910C946016DC
:102D00000F931F930091220210912302209124021D
:102D10003091250260237123822393231F910F9109
:102D20000C9460160F931F930091220210912302BE
:102D30002091240230912502602771278227932752
:102D40001F910F910C9460160C945B160E94A416B0
:102D500060931E0270931F028093200290932102C1
:102D60000C94451260E070E0CB010C94A6160F9312
:102D70001F9341E050E060E070E08A019B0104C0D5
:102D8000000F111F221F331F8A95D2F7C901B80106
:102D90001F910F910C94A6160F931F9341E050E0E2
:102DA00060E070E004C0440F551F661F771F8A95CE
:102DB000D2F780911E0290911F02A0912002B09143
:102DC00021028A019B01082B192B2A2B3B2BC901BD
:102DD000B8011F910F910C94A6160F931F9341E019
:102DE00050E060E070E004C0440F551F661F771F7D
:102DF0008A95D2F7409550956095709580911E0206
:102E000090911F02A0912002B09121028A019B01A2
:102E1000082319232A233B23C901B8011F910F91CD
:102E20000C94A6160F931F9341E050E060E070E011
:102E300004C0440F551F661F771F8A95D2F78091F3
:102E40001E0290911F02A0912002B09121028A01DE
:102E50009B01082719272A273B27C901B8011F9181
:102E60000F910C94A6160F931F9300911E021091C0
:102E70001F022091200230912102602B712B822BA6
:102E8000932B1F910F910C94A6160F931F930091F3
:102E90001E0210911F022091200230912102602316
:102EA0007123822393231F910F910C94A6160F93E5
:102EB0001F9300911E0210911F0220912002309159
:102EC000210260277127822793271F910F910C946D
:102ED000A616089528E0929F800D1124E82FE6950C
:102EE000E695E695877051E001C0550F8A95EAF79F
:102EF00085E0E89FF0011124EA50FE4F20E030E029
:102F000070E04081CB01022E02C0969587950A940D
:102F1000E2F78170819584278523842781932F5F31
:102F20003F4F2530310569F7089528E0929F800DC5
:102F30001124682F669566956695982F977085E0A1
:102F4000689FB001112440E050E080E0FB01E40FF5
:102F5000F51FEA50FE4F208130E0092E02C0369561
:102F600027950A94E2F721703327042E01C0220F1F
:102F70000A94EAF7822B4F5F5F4F4530510531F7D6
:102F80000895BF92CF92DF92EF92FF920F931F931B
:102F9000CF93DF938C01C0901E02D0901F02E0906F
:102FA0002002F09021028091220290912302A091B0
:102FB0002402B0912502C82AD92AEA2AFB2ACFE1A5
:102FC000D0E0D701C6010C2E04C0B695A795979501
:102FD00087950A94D2F780FD04C0219790F7B12C11
:102FE00007C0BC2EB8018C2F0E946C090197A9F371
:102FF0008B2DDF91CF911F910F91FF90EF90DF907C
:10300000CF90BF900895CF93DF93EC010E94C1173A
:10301000BE010E946C09DF91CF9108951F93CF9359
:10302000DF93EB019091BD01992321F0CB010E9428
:10303000031813C0882349F0CB010E94C117182F31
:10304000682FCE010E946A1704C0CB010E94951719
:10305000182FBE01812F0E946C09DF91CF911F9123
:10306000089580912602859585958595089580918E
:1030700026028770089590912602977081E009F4E6
:1030800080E0089580913202089590913202892B58
:103090008093320208958095909132028923809323
:1030A0003202089510923202089590913102892BD4
:1030B0008093310208958095909131028923809305
:1030C0003102089510923102089590913002892BB7
:1030D00080933002089580959091300289238093E7
:1030E00030020895109230020895809127020895C9
:1030F00008950C9478180C947918909127029817D9
:1031000021F0809327020C947B1808958091270268
:10311000882329F01092270280E00C947B180895F0
:10312000E0910001F0910101809132028083E091F1
:103130000001F0910101908180913102892B8083FF
:10314000E0910001F0910101908180913002892B82
:10315000808380912702882381F0E0910001F09123
:1031600001019081892B8083809100019091010160
:103170000E94BB1981110E948618809100019091D4
:1031800001010C947D0D0C94781898E0899F9001B2
:103190001124262B209326020E94CC168091260211
:1031A0008595859585950C94C3181092260280E02C
:1031B0000C94C318209126028095822380932602C6
:1031C000982F977079F430E0482F082E000C550B9B
:1031D0002417350739F08595859585950E94ED165C
:1031E0000C94D518089590939101809390010895BF
:1031F0008295982F937344E0949F900111248C7CC6
:1032000086958695282B822F8575880F2A7A269594
:10321000822B089580E090E00E941C2D21E08C3EDE
:103220009E4F09F020E0822F089582E090E00C94F8
:10323000142D682F82E090E00C94222D83E090E022
:103240000C94142D682F83E090E00C94222DCF93E2
:1032500084E090E00E94142DC82F81E290E00E944B
:10326000142D2C2F30E0A901582BCA01CF910895BD
:10327000CF93C92F682F84E090E00E94222D6C2FFD
:1032800081E290E0CF910C94222DAB01BC018FE044
:1032900090E00C94342DAB01BC0183E190E00C94E0
:1032A000342D60E070E0CB010C944B1960E070E0CD
:1032B000CB010E9445190C9451196CEE7EEF80E011
:1032C00090E00E94402D60E082E090E00E94222D7C
:1032D00060E083E090E00E94222D10922202109282
:1032E0002302109224021092250260E084E090E014
:1032F0000E94222D60E081E290E00E94222D60E099
:1033000085E090E00E94222D60E086E090E00E943F
:10331000222D6FEF87E090E00E94222D40E050E0E8
:10332000BA0188E090E00E94342D60E08DE090E0EA
:103330000E94222D40E050E0BA0188E190E00E9416
:10334000342D60E087E190E00E94222D40E050E0C3
:10335000BA018CE190E00E94342D60E080E290E0C0
:103360000E94222D0C9456190C945D19682F8EE042
:1033700090E00C94222DFC01329697E080E0915071
:1033800029F021912223D9F38F5FF9CF0895662385
:1033900049F0FC01329608962191621729F0E8174E
:1033A000F907D1F780E0089581E008959C01FC01C0
:1033B00032969FEF80E04191461789F09F3F19F4C4
:1033C000411101C0982F8F5F8630A9F79F3F39F0D8
:1033D000F901E90FF11D97FDFA95628308950895AB
:1033E0009C012A5F3F4FFC014281461301C01282BB
:1033F000019682179307B9F708950C94D6190C9487
:10340000F019029626E0FC0111922A95E9F7089539
:103410000895CF930E9491080E9487070E94920806
:10342000C0E08C2F0E945C08811104C0CF5FC830BF
:10343000C1F701C081E0CF9108950C94081A0C9453
:103440001D1A0E941F1A80915F02843049F1109268
:10345000340220E488E190E00FB6F894A8958093B8
:1034600060000FBE2093600080E00E94DB080E9495
:103470001F1A83B7817F846083BF83B7816083BF56
:103480007894889583B78E7F83BF0FB6F894A895FC
:1034900080916000886180936000109260000FBE90
:1034A00008950C94081A0E945F120E94710D0E94E8
:1034B000DB080C94511A1F920F920FB60F92112431
:1034C0008F939F93AF93BF9380913402811113C068
:1034D0008091550290915602A0915702B0915802E6
:1034E0004196A11DB11D8093550290935602A09361
:1034F0005702B0935802BF91AF919F918F910F9057
:103500000FBE0F901F90189582E084BD93E095BD8B
:103510009AEF97BD80936E0008952FB7F89480912D
:10352000550290915602A0915702B09158022FBFB8
:1035300008952FB7F89460915502709156028091CA
:103540005702909158022FBF0895CF92DF92EF92C9
:10355000FF920F931F932FB7F8944091550250910B
:10356000560260915702709158022FBF6A017B0189
:10357000EE24FF248C0120E030E0C016D106E206E4
:10358000F30610F4415051099A01281B390BC90167
:103590001F910F91FF90EF90DF90CF900895CF9201
:1035A000DF92EF92FF920F931F932FB7F894C09082
:1035B0005502D0905602E0905702F09058022FBF6B
:1035C00097018601061B170B280B390BC616D70669
:1035D000E806F90618F0C901B80106C0C901B8012A
:1035E00061507109810991091F910F91FF90EF902E
:1035F000DF90CF90089578941F920F920FB60F929C
:1036000011248F939F93AF93BF9380915502909114
:103610005602A0915702B09158020196A11DB11D0A
:103620008093550290935602A0935702B09358028C
:10363000BF91AF919F918F910F900FBE0F901F90F0
:10364000189581E08093E00080E28093D80010928A
:10365000C9008FE19EE40197F1F700C0000087E008
:1036600090EBDC018093680290936902A0936A0258
:10367000B0936B029CE088E10FB6F894A895809314
:1036800060000FBE90936000FFCFCF92DF92EF9269
:10369000FF920F931F93CF93C0E0E82EF12C8C2F55
:1036A0000E945C0800E010E0C82ED12CC601002E5C
:1036B00002C0959587950A94E2F780FD06C00F5FDA
:1036C0001F4F0830110591F70AC0602F7C2F80E052
:1036D0000E944F09E816F90691F781E004C0CF5F18
:1036E000C830E9F680E0CF911F910F91FF90EF90E5
:1036F000DF90CF900895CF93C82F8CE20E94451B96
:10370000882321F08C2FCF910C94451B80E0CF9122
:103710000895CF930E940A19811102C00E94B41922
:1037200085E792E00E94BE06C5E6C15049F00E94BE
:1037300087078FE39CE90197F1F700C00000F5CF00
:103740008EE692E00E94BE0689E20E947B1B8111F8
:1037500020C18AE20E947B1B81110E94B41985E07E
:103760000E947B1B81110E94211B0E9415198093CE
:10377000330287E00E947B1B8823A9F18BE10E9422
:103780007B1B882351F08091330281FB222720F993
:1037900091E0922790FB81F90EC08EE00E947B1B86
:1037A000882361F08091330282FB222720F991E087
:1037B000922790FB82F98093330215C080E10E942A
:1037C0007B1B90913302882341F093FB222720F941
:1037D00081E0822780FB93F904C0892F809580FBCC
:1037E00090F990933302809133020E9419190E943C
:1037F000271990935A028093590280EE0E947B1BF6
:10380000882341F080915902982F909590FB80F980
:103810008093590289E30E947B1B882359F0809191
:10382000590281FB222720F991E0922790FB81F930
:103830008093590282EE0E947B1B882359F080916D
:10384000590282FB222720F991E0922790FB82F90E
:103850008093590286EE0E947B1B882359F0809149
:10386000590283FB222720F991E0922790FB83F9EC
:103870008093590283EE0E947B1B882359F080912C
:10388000590284FB222720F991E0922790FB84F9CA
:103890008093590285E30E947B1B882359F0809115
:1038A000590285FB222720F991E0922790FB85F9A8
:1038B0008093590281E30E947B1B882359F08091F9
:1038C000590286FB222720F991E0922790FB86F986
:1038D0008093590281E10E947B1B882359F08091DB
:1038E000590287FB222720F991E0922790FB87F964
:1038F000809359028091590290915A020E9438197E
:1039000087E20E947B1BC82F8EE10E947B1B8111E6
:10391000C2608FE10E947B1B8111C46080E20E9423
:103920007B1B8111C86081E20E947B1B8111C061F9
:1039300082E20E947B1B8111C06283E20E947B1B9A
:103940008111C06484E20E947B1B882311F0C0684F
:1039500002C0CC2329F08C2F0E9422196C2F03C0A7
:103960000E941E19682F70E080E090E00E946C16A3
:103970008FE00E947B1B882319F081E00E94B6191A
:1039800085E10E947B1B882321F080E0CF910C947D
:10399000B619CF91089580913C0280FF0BC06091D1
:1039A000070185E0689FB0011124759567957595AD
:1039B00067952BC081FF09C06091070185E0689F72
:1039C000B00111247595679520C082FF07C06091F2
:1039D000070185E0689FB001112417C090913B0258
:1039E0009923D1F060910601961788F7209107017D
:1039F00085E0289F90011124929FA001939F500D74
:103A0000112470E0CA010E94E62C6038710540F470
:103A10006115710519F406C065E070E0862F089500
:103A20008FE7089581E0089580913C0280FF08C0EF
:103A30006091030170E0759567957595679521C054
:103A400081FF06C06091030170E07595679519C00C
:103A500082FF04C06091030170E010C090913B02AE
:103A6000992399F0609102019617A0F780910301C4
:103A7000899FC001112470E00E94E62C6038710516
:103A800040F46115710519F406C061E070E0862FFD
:103A900008958FE7089581E00895803F21F40E9402
:103AA000CB1C819504C0813F29F40E94CB1C8093DC
:103AB00040020895823F21F40E94CB1C819504C0EE
:103AC000833F29F40E94CB1C80933F020895893FD5
:103AD00019F40E94141D05C08A3F31F40E94141D80
:103AE00081958093410208958B3F21F40E94141D1B
:103AF000819504C08C3F29F40E94141D80934202DA
:103B00000895843F21F480913E02816017C0853F73
:103B100021F480913E02826011C0863F21F48091A1
:103B20003E0284600BC0873F21F480913E02886092
:103B300005C0883F31F480913E02806180933E024F
:103B400008958D3F21F480913C0281600BC08E3F2F
:103B500021F480913C02826005C08F3F29F480915E
:103B60003C02846080933C020895803F39F4809148
:103B7000400287FF6CC01092400269C0813F29F467
:103B8000809140021816BCF362C090913F02823FC0
:103B900029F497FF5CC010923F0259C0833F19F48B
:103BA0001916CCF354C0893F41F480914102181694
:103BB0000CF04DC0109241024AC08A3F29F4809116
:103BC000410287FF44C0F6CF8B3F39F48091420217
:103BD00087FF3DC0109242023AC08C3F29F4809189
:103BE00042021816BCF333C0843F21F480913E0298
:103BF0008E7F17C0853F21F480913E028D7F11C0DA
:103C0000863F21F480913E028B7F0BC0873F21F4D9
:103C100080913E02877F05C0883F31F480913E024B
:103C20008F7E80933E0213C08D3F21F480913C0231
:103C30008E7F0BC08E3F21F480913C028D7F05C0AA
:103C40008F3F29F480913C028B7F80933C028091CE
:103C50003F0281110EC08091400281110AC0809103
:103C60004102811106C080914202811102C010926E
:103C70003B0208958091330283FF7EC081EB92E086
:103C80000E94BE0680913E021F928F938CEA92E0C2
:103C90009F938F930E9457078AEA92E00E94BE0684
:103CA00080913F02282F082E000C330B3F938F93F7
:103CB00087EA92E09F938F930E94570785EA92E0EC
:103CC0000E94BE0680914002282F082E000C330B64
:103CD0003F938F9382EA92E09F938F930E945707BE
:103CE00080EA92E00E94BE0680914102282F082EB1
:103CF000000C330B3F938F938DE992E09F938F934A
:103D00000E9457078BE992E00E94BE068091420212
:103D1000282F082E000C330B3F938F9388E992E0F5
:103D20009F938F930E94570785E992E00E94BE06F9
:103D300080913B021F928F9382E992E09F938F9331
:103D40000E94570780E992E00E94BE0680913C02E3
:103D50001F928F938DE892E09F938F930E94570755
:103D60008AE892E00E94BE068DB79EB74C960FB6C9
:103D7000F8949EBF0FBE8DBF8DE392E00E94C60DEA
:103D80000E948D1A90933A02809339020895CF933E
:103D9000DF9300D000D000D0CDB7DEB786E0EDE3F2
:103DA000F2E0DE01119601900D928A95E1F7809183
:103DB0003F02811105C080914002882309F47AC036
:103DC00080913702909138020E94A51AAC0190911F
:103DD0003B02992339F02091080130E02417350780
:103DE00058F068C0209109018AE0289F90011124B1
:103DF0002417350718F05EC09F3F19F09F5F90931E
:103E00003B02109241021092420280913F0218162A
:103E100024F40E94CB1C80933F0280913F0287FFD5
:103E200005C00E94CB1C819580933F028091400287
:103E3000181624F40E94CB1C80934002809140020B
:103E400087FF05C00E94CB1C819580934002309172
:103E50003F023323E1F0209140022223C1F045EBE1
:103E60003403C0011124992319F090933F0203C039
:103E700081E080933F0235EB2303C0011124992395
:103E800019F09093400203C081E0809340020E94A9
:103E90003A1E8091390290913A02909338028093B1
:103EA000370286E0FE013196ADE3B2E001900D925B
:103EB0008A95E1F780914102811105C0809142020B
:103EC000882309F47AC080913502909136020E94CD
:103ED000A51AAC0190913B02992339F0209104017D
:103EE00030E02417350758F068C0209105018AE0BA
:103EF000289F900111242417350718F05EC09F3FBA
:103F000019F09F5F90933B0210923F021092400283
:103F100080914102181624F40E94141D80934102DE
:103F20008091410287FF05C00E94141D81958093F6
:103F3000410280914202181624F40E94141D8093BD
:103F400042028091420287FF05C00E94141D8195A4
:103F500080934202309141023323E1F020914202EA
:103F60002223C1F045EB3403C0011124992319F039
:103F70009093410203C081E08093410235EB23031B
:103F8000C0011124992319F09093420203C081E0EB
:103F9000809342020E943A1E8091390290913A0227
:103FA000909336028093350286E0FE013196ADE3B0
:103FB000B2E001900D928A95E1F726960FB6F8943B
:103FC000DEBF0FBECDBFDF91CF910895EDE3F2E0EC
:103FD00086E0DF011D928A95E9F710923B0210926C
:103FE0003C02089584ED94E00E94BE061F9281E099
:103FF0008F931F9285E08F9386E894E09F938F9331
:104000000E9457070F900F900F900F900F900F90F6
:1040100008958330E9F128F4813061F0823009F1AC
:104020000895853009F462C008F449C0863009F467
:1040300074C0089580910901262F30E0280F311DAA
:104040002F3F310524F4680F6093090103C08FEFFF
:1040500080930901809109011F928F938FEB93E068
:1040600072C080910801262F30E0280F311D2F3FAC
:10407000310524F4680F6093080103C08FEF80932B
:104080000801809108011F928F938DEA93E05BC035
:1040900080910701262F30E0280F311D2F3F310579
:1040A00024F4680F6093070103C08FEF809307012A
:1040B000809107011F928F938AE993E044C0809119
:1040C0000601262F30E0280F311D2F3F310524F443
:1040D000680F6093060103C08FEF80930601809103
:1040E00006011F928F9385E893E02DC08091030114
:1040F000262F30E0280F311D2F3F310524F4680FA3
:104100006093030103C08FEF80930301809103014B
:104110001F928F938CE693E016C080910201262FA8
:1041200030E0280F311D2F3F310524F4680F6093D4
:10413000020103C08FEF80930201809102011F9260
:104140008F9381E593E09F938F930E9457070F9081
:104150000F900F900F900895833081F128F48130F3
:1041600059F08230D1F00895853009F449C0B8F192
:10417000863009F456C0089580910901681720F42B
:10418000861B8093090102C01092090180910901E8
:104190001F928F9382E493E054C0809108016817C6
:1041A00020F4861B8093080102C0109208018091C0
:1041B00008011F928F9380E393E043C08091070131
:1041C000681720F4861B8093070102C01092070134
:1041D000809107011F928F938DE193E032C080910F
:1041E0000601681720F4861B8093060102C0109216
:1041F0000601809106011F928F9388E093E021C011
:1042000080910301681720F4861B8093030102C08C
:1042100010920301809103011F928F938FEE92E021
:1042200010C080910201681720F4861B8093020160
:1042300002C010920201809102011F928F9384EDBF
:1042400092E09F938F930E9457070F900F900F90CB
:104250000F900895CF93C82F1F928F9389ED95E00B
:104260009F938F930E94570781E090E0A0E0B0E019
:10427000BC01CD0104C0660F771F881F991FCA9526
:10428000D2F70E946C160F900F900F900F90CF9165
:104290000C945F12CF93DF938B3109F4F9C108F0CE
:1042A0008FC18B3009F4B2C108F065C1863009F4C2
:1042B000B0C120F4853009F4BEC16CC2873009F466
:1042C000CCC1883009F066C281E29BE00E94BE0644
:1042D00082E79AE00E94BE060E941E191F928F93E9
:1042E0008FE69AE09F938F930E9457078DE69AE09E
:1042F0000E94BE060E941519C82F8AE59AE00E9406
:10430000BE061F92CF9385E59AE09F938F930E94FC
:10431000570783E59AE00E94BE0689E49AE00E946E
:10432000BE068C2F81701F928F9386E49AE09F9334
:104330008F930E94570784E49AE00E94BE068AE3A6
:104340009AE00E94BE06C1FB882780F91F928F93D6
:1043500087E39AE09F938F930E94570785E39AE043
:104360000E94BE0689E29AE00E94BE06C2FB882730
:1043700080F91F928F9386E29AE09F938F930E9419
:10438000570784E29AE00E94BE068BE19AE00E9401
:10439000BE06C3FBCC27C0F91F92CF9388E19AE0F9
:1043A0009F938F930E94570786E19AE00E94BE0672
:1043B0000E942719EC0182E09AE00E94BE06DF937A
:1043C000CF938DEF99E09F938F930E9457078BEFC8
:1043D00099E00E94BE0682EE99E00E94BE068C2FF4
:1043E00081701F928F938FED99E09F938F930E941E
:1043F00057078DB79EB780960FB6F8949EBF0FBE35
:104400008DBF8DED99E00E94BE0686EC99E00E947A
:10441000BE06C1FB882780F91F928F9383EC99E039
:104420009F938F930E94570781EC99E00E94BE06EC
:104430008FEA99E00E94BE068D2F81701F928F93A4
:104440008CEA99E09F938F930E9457078AEA99E03C
:104450000E94BE0688E999E00E94BE06D695D170FA
:104460001F92DF9385E999E09F938F930E945707EE
:1044700083E999E00E94BE0681E899E00E94BE06A9
:10448000C2FB882780F91F928F938EE799E09F9354
:104490008F930E9457078CE799E00E94BE068AE638
:1044A00099E00E94BE06C3FB882780F91F928F9374
:1044B00087E699E09F938F930E94570785E699E0DE
:1044C0000E94BE068BE599E00E94BE06C4FB8827C9
:1044D00080F91F928F9388E599E09F938F930E94B4
:1044E000570786E599E00E94BE0684E499E00E94A1
:1044F000BE06C5FB882780F91F928F9381E499E05F
:104500009F938F930E9457078FE399E00E94BE0606
:1045100083E299E00E94BE06C6FB882780F91F92BD
:104520008F9380E299E09F938F930E9457078DB7F6
:104530009EB780960FB6F8949EBF0FBE8DBF8EE1DA
:1045400099E00E94BE0686E199E00E94BE06C7FB84
:10455000CC27C0F91F92CF9383E199E09F938F936B
:104560000E94570781E199E00E94BE060F900F90CC
:104570000F900F9049C0803109F4B4C020F48E3000
:1045800009F49AC007C1863109F4C7C0893109F01E
:1045900001C188E397E00E94BE0680E197E00E9497
:1045A000BE068AED96E00E94BE0682EB96E00E946F
:1045B000BE0682E796E00E94BE0687E496E08FC0C2
:1045C0008A32E1F060F4873209F4E0C028F48E31D9
:1045D00008F4E0C08D51DBC0893269F1DBC083345F
:1045E00048F48A3308F0D0C0853309F4CFC088334B
:1045F00069F0D0C0833409F4C9C0CCC080E19BE02D
:104600000E94BE060E94B419C1E0C9C08EE697E0C0
:1046100066C080913302817F8E7F8093330287E46E
:1046200097E00E94BE068CE09BE00E94BE0681E0FF
:1046300080934402E9CF0E945F1280EF9AE00E94CB
:10464000BE069FEF23ED80E3915020408040E1F7CC
:1046500000C000000E94211BD7CF80913302C82FD9
:10466000C095C170C0FB80F980933302CC2329F040
:1046700084EE9AE00E94BE0692C087ED9AE00E9406
:10468000BE0680913302897F877F80933302BCCF3F
:104690009091330291FBCC27C0F981E0C827892F84
:1046A000C0FB81F980933302CC2319F08AEC9AE0A5
:1046B00029C08CEB9AE013C09091330292FBCC2777
:1046C000C0F981E0C827892FC0FB82F980933302AB
:1046D000CC2319F08DEA9AE015C08DE99AE00E948A
:1046E000BE0692CF9091330293FBCC27C0F981E0B4
:1046F000C827892FC0FB83F980933302CC2351F064
:1047000081E99AE00E94BE06809133028160809325
:10471000330245C084E89AE0E2CF89E396E00E9444
:10472000BE060E94710D1F928F938FE196E09F93BA
:104730008F930E945707809114011F928F9388E0F6
:1047400096E09F938F930E945707809151021F928A
:104750008F9385EF95E09F938F930E9457070E9458
:10476000991A9F938F937F936F938EED95E09F930C
:104770008F930E9457078DB79EB742960FB6F89455
:104780009EBF0FBE8DBF40CF895301C080E00E9405
:104790002A213ACF82E89AE00E94BE06C0E08C2F20
:1047A000DF91CF91089580E008950C94D3238E512A
:1047B0008A3030F4E82FF0E0E958FE4F8081089508
:1047C00080E00895CF93C82F80914402813059F042
:1047D00020F0823009F445C039C10E94421882326B
:1047E00009F036C104C00E944218823261F48C2F55
:1047F0000E94D523811104C08C2F0E944A212FC012
:1048000081E090E02CC08C2F0E94D323811126C020
:10481000C431E1F070F4CB3081F0C031D1F40E94AA
:10482000F21F81ED95E00E94BE0682E08093440273
:1048300015C0C93259F0C83361F487E497E00E948B
:10484000BE0685ED95E00E94BE0608C010924402A7
:1048500001C18FEC95E00E94BE06FCC081E0817032
:10486000FBC0C43228F5CE3108F0C1C0CB30A1F175
:10487000D0F4C73009F0D0C08EE18093090182E303
:10488000809308018AE08093070184E18093060108
:1048900088E08093030188E28093020185E794E039
:1048A0000E94BE06BCC0C33149F1C431C1F0B4C0DE
:1048B000CB3409F4A6C028F4C93289F0C83361F0BA
:1048C000ABC0C13509F49BC0C23509F496C0CE34E3
:1048D00009F0A2C06AE09BC00E94F21FA0C08091B4
:1048E0004302882319F01092430299C082E894E0B1
:1048F0000E94BE0681E080934402AEC08CE594E045
:104900000E94BE068AE494E00E94BE0680910901DE
:104910001F928F9387E494E09F938F930E94570791
:1049200085E494E00E94BE0683E394E00E94BE0604
:10493000809108011F928F9380E394E09F938F935F
:104940000E9457078EE294E00E94BE068FE194E039
:104950000E94BE06809107011F928F938CE194E024
:104960009F938F930E9457078AE194E00E94BE06AE
:1049700089E094E00E94BE06809106011F928F9309
:1049800086E094E09F938F930E94570784E094E021
:104990000E94BE068FEE93E00E94BE068091030146
:1049A0001F928F938CEE93E09F938F930E945707F3
:1049B0008AEE93E00E94BE0683ED93E00E94BE065D
:1049C000809102011F928F9380ED93E09F938F93CC
:1049D0000E9457078EEC93E00E94BE068DB79EB7EB
:1049E00048960FB6F8949EBF0FBE8DBF18C08C2F8F
:1049F0000E94D7238093430212C061E003C061E0AC
:104A000006C06AE0809143020E94092008C080919C
:104A100043020E94AC2003C083E794E013C080915E
:104A20004302882369F01F928F938DE694E09F9351
:104A30008F930E9457070F900F900F900F9004C014
:104A40008AE694E00E94BE0681E006C0109244020D
:104A500080E002C080E003CFCF91089580915002A2
:104A600008959FB7F894109247029FBF90915F02FC
:104A7000943009F057C09091E9009F703091EC009C
:104A8000232F217030FD20E8922B23E02093E900B2
:104A90002091EB0020FF43C02091EE0027FF3FC094
:104AA00020914502222321F02091E80025FF37C004
:104AB0001092450226E03091E80035FD15C0309196
:104AC0005F02343061F53091EB0035FD28C0215094
:104AD00021F481E08093450222C0EFE9FFE03197A5
:104AE000F1F700C00000E7CF8093F1008091E8006B
:104AF00085FD0AC08091E80080FFFCCF8091E8002E
:104B00008E778093E80006C08FB7F89421E0209359
:104B100047028FBF9F709093E90080E008959F70D7
:104B20009093E9008FEF0895CF93DF9300D01F9209
:104B3000CDB7DEB790915F02943019F589837B83FE
:104B40006A8382E08093E9008FEF9091E8008150C2
:104B500095FD06C095ED9A95F1F700008111F5CF0E
:104B60008091E80085FF0DC040E050E063E070E018
:104B7000CE0101960E943D288091E8008E778093B7
:104B8000E8000F900F900F90DF91CF910895CF9391
:104B9000DF93EC010E942028823011F0843031F440
:104BA000BE0184E0DF91CF910C949425DF91CF91E9
:104BB0000895BC0183E00C949425CF93DF93EC011E
:104BC0000E942028823011F08430F9F482E0809332
:104BD000E9008FEF9091E800815095FD06C095EDBA
:104BE0009A95F1F700008111F5CF8091E80085FFDB
:104BF0000CC040E050E066E070E0CE010E943D282D
:104C00008091E8008E778093E800DF91CF9108953E
:104C1000CF93DF93EC010E942028823011F0843082
:104C200039F581E08093E9008FEF9091E8008150A1
:104C300095FD06C095ED9A95F1F700008111F5CF2D
:104C40008091E80085FF14C040E050E068E070E02B
:104C5000CE010E943D288091E8008E778093E80085
:104C600088E0FE01A8E4B2E001900D928A95E1F798
:104C7000DF91CF91089581E59BE00E94BE0680916F
:104C80005E02811109C00E94CE290E942B2A8091C8
:104C9000E20084608093E20008958DE49BE00E942E
:104CA000BE0610925E02089589E49BE00C94BE0655
:104CB00085E49BE00C94BE0681E49BE00E94BE0666
:104CC0000C94531A209146022F5F822F62E30E94B8
:104CD000DA2C992319F02093460208951092460287
:104CE00080914702882371F180915F02843041F501
:104CF0008091E9008F702091EC00922F917020FD3F
:104D000090E8892B93E09093E9009091EB0090FF5D
:104D100014C09091EE0097FF10C09091E80095FFAD
:104D200003C01092F100F9CF9091E80090FF05C008
:104D30009091E8009E779093E8008F708093E9004F
:104D400010924702089542E061EC81E00E944729F9
:104D500042E261EC82E00E94472942E261EC83E09A
:104D60000C94472980916102833009F460C030F4CB
:104D7000813071F0823009F499C008958A3009F4C5
:104D800085C08B3009F46BC0893009F0A7C020C002
:104D900080916002813A09F0A1C08091E800877F8C
:104DA0008093E8008091640290916502892B21F440
:104DB00068E088E492E003C060E080E090E070E0AA
:104DC0000E9488288091E8008B778093E8000895FE
:104DD00080916002813209F081C0809164029091DB
:104DE0006502029708F07AC08091E800877F80937F
:104DF000E8008091E80082FD05C080915F0281118A
:104E0000F8CF6CC02091F3008091F20090E0922BDB
:104E1000029729F48091F1008B7F813021F48091F9
:104E2000F100809350028091E8008B7753C080910D
:104E30006002813A09F052C080916402909165024B
:104E4000892B09F04BC08091E800877F8093E800B0
:104E50008091E80080FFFCCF8091140136C08091E2
:104E600060028132D9F58091640290916502892BAC
:104E7000A9F58091E800877F8093E8000E947C2953
:104E800080916202809314010C945F128091600201
:104E9000813221F58091E800877F8093E8000E94AD
:104EA0007C29809163028093510208958091600271
:104EB000813AA1F48091E800877F8093E800809197
:104EC000E80080FFFCCF809151028093F100809137
:104ED000E8008E778093E8000C947C29089584B7CD
:104EE000877F84BF0FB6F894A89580916000886191
:104EF00080936000109260000FBE90E080E80FB6D3
:104F0000F89480936100909361000FBE0E94100E90
:104F10000E94CE290E942B2A8091E2008460809317
:104F2000E20081E395E20E94F31878940E94BF2C7E
:104F30000E94180E8AE091E00E946C0D80E39BE0D5
:104F40000E94BE0680915F02853089F48CE29BE06E
:104F50000E94BE060E94211A80915D02882391F36F
:104F60000E94091A882371F30E942728EBCF0E9420
:104F7000480EE8CF0C94BC27292F33272330310566
:104F8000C9F060F42130310581F02230310509F09B
:104F900047C08BE590E021E83BE046C02132310577
:104FA00011F12232310561F13BC082E190E02CED3C
:104FB0003BE03AC099278130910561F040F08230A2
:104FC000910559F0039761F5E5E5FBE008C0EDE7D1
:104FD000FBE005C0EFE6FBE002C0EBE5FBE08491FF
:104FE00090E09F0121C063307105D0F4660F771FF8
:104FF000FB01E657FE4F2081318189E090E014C02B
:105000006330710568F4FB01EE0FFF1FEC57FE4F94
:1050100020813181FB01EF57FE4F808190E004C079
:1050200080E090E020E030E0FA01318320830895B1
:1050300080915F02843011F081E0089582E008954C
:1050400080915202811102C00C941828089580E1C9
:1050500089BD82E189BD09B400FEFDCF8091D800F1
:105060008F7D8093D8008091E00082608093E00083
:105070008091E00081FDFCCF0895CF92DF92EF9206
:10508000FF920F931F93CF93DF93EC018B017A0173
:105090000E949B29811133C0E114F10439F0F7011A
:1050A00080819181081B190BC80FD91FC12CD12CED
:1050B0000115110519F18091E80085FD16C0809158
:1050C000E8008E778093E800E114F10449F0F701DD
:1050D00080819181C80ED91ED182C08285E00FC027
:1050E0000E949B29882321F30AC089918093F100B3
:1050F00001501109FFEFCF1ADF0ADACF80E0DF910C
:10510000CF911F910F91FF90EF90DF90CF90089576
:1051100020916602309167022617370748F0611523
:10512000710539F42091E8002E772093E80001C042
:10513000B901FC0120E06115710579F180915F02F0
:105140008823F1F18530F1F18091E80083FD3CC0C6
:105150008091E80082FD2EC08091E80080FFEBCFB7
:105160002091F3008091F20090E0922B611571057F
:1051700051F08830910538F421912093F10061506D
:1051800071090196F3CF21E0089709F020E08091A2
:10519000E8008E778093E800CECF2111CFCF0AC0F0
:1051A00080915F02882361F0853061F08091E80092
:1051B00083FD0AC08091E80082FFF2CF80E008956D
:1051C00082E0089583E0089581E0089520916602C9
:1051D000309167022617370748F06115710539F4D9
:1051E0002091E8002E772093E80001C0B901FC016E
:1051F00020E06115710591F180915F02882309F427
:1052000040C0853009F43FC08091E80083FD3DC077
:105210008091E80082FD2FC08091E80080FFE9CFF7
:105220002091F3008091F20090E0922B61157105BE
:1052300059F08830910540F424912093F100319683
:10524000615071090196F2CF21E0089709F020E042
:105250008091E8008E778093E800CBCF2111CCCFEE
:105260000AC080915F02882361F0853061F08091EF
:10527000E80083FD0AC08091E80082FFF2CF80E061
:10528000089582E0089583E0089581E00895982FBD
:10529000973068F59093E900981739F07091EC0019
:1052A0002091ED005091F00003C0242F762F50E0A4
:1052B00021FD02C09F5FECCF3091EB003E7F309329
:1052C000EB003091ED003D7F3093ED003091EB002D
:1052D00031603093EB007093EC002093ED0050931D
:1052E000F0002091EE0027FDE5CF80E008958F705B
:1052F0008093E90081E008958091600287FF11C0EA
:105300008091E80082FD05C080915F028111F8CF95
:1053100011C08091E8008B770BC080915F028823D9
:1053200049F08091E80080FFF8CF8091E8008E7707
:105330008093E80008952091E4003091E50095E61F
:105340004091EC00842F817040FF23C08091E800E1
:1053500080FD1DC080915F02882399F0853099F00F
:105360008091EB0085FD11C04091E4005091E50073
:105370002417350729F3915011F09A01E1CF84E009
:10538000089582E0089583E0089581E0089580E023
:1053900008954091E80042FFDDCF08950E943C2A25
:1053A0000E94442AE0EEF0E0808181608083E8ED95
:1053B000F0E080818F77808319BCA7EDB0E08C91FD
:1053C0008E7F8C9380818F7E808310925E02089501
:1053D0000F931F93CF93DF930E943C2A0E94442A8D
:1053E000C8EDD0E088818F77888388818068888342
:1053F00088818F7D888319BC10925F0210925B02B6
:1054000010925D0210925C0200EE10E0F8018081C3
:105410008B7F808388818160888342E060E080E0C8
:105420000E944729E1EEF0E080818E7F8083E2EEEA
:10543000F0E0808181608083808188608083F801D2
:1054400080818E7F8083888180618883DF91CF9186
:105450001F910F910895E8EDF0E080818F7E8083A9
:10546000E7EDF0E080818160808384E082BF81E0AD
:1054700080935E020C94E829E8EDF0E080818E7F55
:1054800080831092E20008951092DA001092E100F9
:1054900008951F920F920FB60F9211242F933F93EE
:1054A0004F935F936F937F938F939F93AF93BF932C
:1054B000EF93FF938091E10082FF0BC08091E200A7
:1054C00082FF07C08091E1008B7F8093E1000E9402
:1054D00062268091DA0080FF1FC08091D80080FF93
:1054E0001BC08091DA008E7F8093DA008091D90012
:1054F00080FF0DC080E189BD82E189BD09B400FE55
:10550000FDCF81E080935F020E943B2605C019BC5D
:1055100010925F020E944D268091E10080FF19C029
:105520008091E20080FF15C08091E2008E7F809321
:10553000E2008091E20080618093E2008091D800D7
:1055400080628093D80019BC85E080935F020E943E
:1055500058268091E10084FF30C08091E20084FFF2
:105560002CC080E189BD82E189BD09B400FEFDCF78
:105570008091D8008F7D8093D8008091E1008F7E4C
:105580008093E1008091E2008F7E8093E200809121
:10559000E20081608093E20080915B02882311F039
:1055A00084E007C08091E30087FD02C081E001C074
:1055B00083E080935F020E945C268091E10083FF7C
:1055C00029C08091E20083FF25C08091E100877FA0
:1055D0008093E10082E080935F0210925B028091F1
:1055E000E1008E7F8093E1008091E2008E7F8093C6
:1055F000E2008091E20080618093E20042E060E09E
:1056000080E00E9447298091F00088608093F0003C
:105610000E945426FF91EF91BF91AF919F918F917E
:105620007F916F915F914F913F912F910F900FBE9E
:105630000F901F9018951F920F920FB60F92112482
:105640002F933F934F935F936F937F938F939F938A
:10565000AF93BF93CF93DF93EF93FF93C091E90094
:10566000CF708091EC00D82FD17080FDD0E81092DF
:10567000E9008091F000877F8093F00078940E9489
:105680005F2B1092E9008091F00088608093F00019
:10569000CD2BCF70C093E900FF91EF91DF91CF91B7
:1056A000BF91AF919F918F917F916F915F914F913A
:1056B0003F912F910F900FBE0F901F9018951F9341
:1056C000CF93DF93CDB7DEB7AA970FB6F894DEBFBE
:1056D0000FBECDBFE0E6F2E08091F100819322E0C1
:1056E000E836F207C9F70E94B2268091E80083FFEE
:1056F0002EC18091600290916102492F50E04A30A2
:10570000510508F024C1FA01EC58FF4F0C94FA2C13
:10571000803821F0823809F01AC108C080915C02FB
:1057200090915D02992389F082600FC0809164029C
:105730008F70873008F00BC18093E9008091EB00F7
:1057400085FB882780F91092E9009091E800977F07
:105750009093E8008093F1001092F100D1C0282FBF
:105760002D7F09F0F4C0882319F0823061F0EFC07A
:1057700080916202813009F0EAC0933009F080E044
:1057800080935D022EC08091620281112AC08091B7
:1057900064028F702FEF280F263008F0D8C0809356
:1057A000E9002091EB0020FF1CC0933021F4809190
:1057B000EB00806214C09091EB0090619093EB003D
:1057C00021E030E0A90102C0440F551F8A95E2F79D
:1057D0004093EA001092EA008091EB008860809389
:1057E000EB001092E9008091E800877F8093E80049
:1057F0000E947C29ACC08111AAC0109162021F775F
:105800008091E3008078812B8093E3008091E80011
:10581000877F8093E8000E947C298091E80080FFC8
:10582000FCCF8091E30080688093E300111102C0F7
:1058300082E001C083E080935F0289C0805882309B
:1058400008F085C080916202909163028C3D53E024
:10585000950779F583E08A838AE289834FB7F894C4
:10586000DE01139620E03EE051E2E32FF0E050939A
:105870005700E49120FF03C0E295EF703F5FEF70A7
:105880008E2F90E0EA3010F0C79601C0C0968D933D
:105890009D932F5F243149F74FBF8091E800877FA8
:1058A0008093E8006AE270E0CE0101960E948828A9
:1058B00016C06091640270916502AE014F5F5F4F48
:1058C0000E94BA27BC01892B09F441C09091E800DD
:1058D000977F9093E80089819A810E94E6288091C1
:1058E000E8008B778093E80032C0803881F58091A2
:1058F000E800877F8093E80080915B028093F1004D
:105900008091E8008E7772CF811121C08091620270
:105910009091630299270297D4F48091E800877FE1
:105920008093E8008091620280935B020E947C2950
:1059300080915B02811106C08091E30087FD02C067
:1059400081E001C084E080935F020E94A3268091E1
:10595000E80083FF0AC08091E800877F8093E80019
:105960008091EB0080628093EB00AA960FB6F894CA
:10597000DEBF0FBECDBFDF91CF911F910895CF93B2
:1059800080915F028823A1F0C091E900CF709091CF
:10599000EC00892F817090FD80E8C82B1092E900FF
:1059A0008091E80083FD0E945F2BCF70C093E900D7
:1059B000CF910895991B79E004C0991F961708F0BC
:1059C000961B881F7A95C9F78095089597FB072E37
:1059D00016F4009407D077FD09D00E94002D07FC33
:1059E00005D03EF4909581959F4F089570956195EF
:1059F0007F4F0895EE0FFF1F0590F491E02D09945D
:105A0000AA1BBB1B51E107C0AA1FBB1FA617B707E4
:105A100010F0A61BB70B881F991F5A95A9F7809500
:105A20009095BC01CD010895F999FECF92BD81BD3D
:105A3000F89A992780B50895A8E1B0E042E050E0D7
:105A40000C94482D262FF999FECF92BD81BDF89A6E
:105A5000019700B4021639F01FBA20BD0FB6F894B2
:105A6000FA9AF99A0FBE08950396272F0E94232DC4
:105A70000E94222D252F0E94232D242F0C94232DAC
:105A80000196272F0E94232D0C94222DDC01CB019F
:105A9000FC01F999FECF06C0F2BDE1BDF89A31963E
:105AA00000B40D9241505040B8F70895F894FFCFDC
:105AB00028022808641E140A321E2E250826DD2519
:105AC000D925C72501E200E900EA00B500B600B714
:105AD00000CD008301CC008A0192019401210223B0
