:100000000C9472060C94B9060C94B9060C94B906BB
:100010000C94B9060C94B9060C94B9060C94B90664
:100020000C94B9060C94B9060C9483290C94552AA7
:100030000C94131A0C94B9060C94B9060C94B906D6
:100040000C94B9060C94B9060C94B9060C94B90634
:100050000C94B9060C94B31A0C94B9060C94B90616
:100060000C94B9060C94B9060C94B9060C94B90614
:100070000C94B9060C94B9060C94B9060C94B90604
:100080000C94B9060C94B9060C94B9060C94B906F4
:100090000C94B9060C94B9060C94B9060C94B906E4
:1000A0000C94B9060C94B9060C94B906E20FE20F51
:1000B0001410141061108110E111E111C3106011CE
:1000C00071117111D111E111E111DA116312631291
:1000D000751275126C127512751275126312631215
:1000E0007112751275127112C22AE92ADB2BE92AE4
:1000F000DB2B352B582BDB2BAE2BBD2B2530325871
:100100003A20253038620A000A722F6320303132DB
:1001100033343536370A001F0014001A0016000465
:10012000001D001B0006002000210015000800072C
:1001300000090019000500220023001C0017000A16
:10014000000B00110000001E0029002B00E300E15D
:1001500000E20001512C002400250018000C000EC4
:10016000000D0010000000310035002A002800E7D3
:1001700000E500E600E4002600270012001300332B
:10018000000F00360000002D002E0030002F00343C
:10019000003800370000003B0001000100010001B1
:1001A000000100010001003C003D000100010001D0
:1001B000000100010001003E003F000100010001BC
:1001C0000050004A0000003A000100010001000157
:1001D0000001000100010040004100010001005247
:1001E0000051004D000000490001004C00010001D9
:1001F0000001000100010042004300010001000174
:10020000004F000100000044004500010001000112
:100210000001000100000044454255473A2064694E
:100220007361626C65642E0A0044454255473A206A
:10023000656E61626C65642E0A000A0025303258D2
:1002400020006B6579626F6172645F7265706F72B6
:10025000743A20000A0025303258006B6579626FCD
:100260006172645F7365745F6C65643A2000646FEB
:100270006E652E0A00626F6F746D6167696320732B
:1002800063616E3A202E2E2E2000290A002575006B
:100290002F002575005D28002564002000256400DE
:1002A000200025640020002564007C0025303258A1
:1002B000006D6F7573656B6579205B62746E7C7819
:1002C0002079207620685D287265702F61636C2923
:1002D0003A205B006D6B5F776865656C5F74696D74
:1002E000655F746F5F6D6178203D2025640A006D45
:1002F0006B5F776865656C5F6D61785F737065656E
:1003000064203D2025640A006D6B5F74696D655F34
:10031000746F5F6D6178203D2025640A006D6B5F0E
:100320006D61785F7370656564203D2025640A0007
:100330006D6B5F696E74657276616C203D2025641B
:100340000A006D6B5F64656C6179203D2025640A4D
:10035000006D6B5F776865656C5F74696D655F7470
:100360006F5F6D6178203D2025640A006D6B5F77BB
:100370006865656C5F6D61785F7370656564203D6D
:100380002025640A006D6B5F74696D655F746F5F33
:100390006D6178203D2025640A006D6B5F6D61788A
:1003A0005F7370656564203D2025640A006D6B5F96
:1003B000696E74657276616C203D2025640A006D5B
:1003C0006B5F64656C6179203D2025640A000A003A
:1003D000257500363A20776865656C5F74696D65D0
:1003E0005F746F5F6D61783A20000A0025750035F3
:1003F0003A20776865656C5F6D61785F73706565DD
:10040000643A20000A00257500343A2074696D654D
:100410005F746F5F6D61783A20000A0025750033C4
:100420003A206D61785F73706565643A20000A0058
:10043000257500323A20696E74657276616C286D9C
:1004400073293A20000A00257500313A2064656C52
:100450006179282A31306D73293A20000A092D204C
:1004600056616C756573202D0A004D3E004D256464
:100470003E20003F007365742064656661756C748E
:100480000A00433E200077686572652064656C74DD
:10049000613A20637572736F723D25642C20776812
:1004A00065656C3D25640A53656520687474703A0F
:1004B0002F2F656E2E77696B6970656469612E6F89
:1004C00072672F77696B692F4D6F7573655F6B6509
:1004D00079730A000A092D204D6F7573656B657974
:1004E000202D0A4553432F713A09717569740A31F9
:1004F0003A0964656C6179282A31306D73290A32B2
:100500003A09696E74657276616C286D73290A33D5
:100510003A096D61785F73706565640A343A0974ED
:10052000696D655F746F5F6D61780A353A09776848
:1005300065656C5F6D61785F73706565640A363AF6
:1005400009776865656C5F74696D655F746F5F6D71
:1005500061780A0A703A097072696E742076616C6B
:100560007565730A643A097365742064656661751C
:100570006C74730A75703A092B310A646F776E3A9E
:10058000092D310A706775703A092B31300A70678E
:10059000646F776E3A092D31300A0A7370656564AD
:1005A000203D2064656C7461202A206D61785F7342
:1005B00070656564202A2028726570656174202F3B
:1005C0002074696D655F746F5F6D6178290A003F03
:1005D000004D3E2000433E20004C25640A00746913
:1005E0006D65725F72656164333228293A20253067
:1005F000346C580A006B6579626F6172645F69647C
:100600006C653A2025580A006B6579626F617264E7
:100610005F70726F746F636F6C3A2025580A0068C0
:100620006F73745F6B6579626F6172645F6C656430
:100630007328293A2025580A000A092D205374618D
:10064000747573202D0A004743433A20342E392E07
:1006500032204156522D4C4942433A20312E382EF9
:100660003073766E204156525F415243483A2061C2
:100670007672350A004F5054494F4E533A204C552C
:10068000464120424F4F544D41474943204D4F551D
:1006900053454B45592045585452414B45592043E9
:1006A0004F4E534F4C4520434F4D4D414E44203407
:1006B0003039360A004255494C443A2022302E380F
:1006C0002E32332D312D673839656639642D6469D2
:1006D00072747922202831363A33313A3532204D3E
:1006E00061722020392032303230290A00564944C4
:1006F0003A2030784645454428712E6D2E6B2920CE
:100700005049443A203078434146452848484B42B6
:10071000206D6F6429205645523A203078303130B0
:10072000340A00444553433A20712E6D2E6B206BE2
:100730006579626F617264206669726D7761726556
:1007400020666F722048484B420A000A092D205645
:10075000657273696F6E202D0A000A092D20436FA0
:100760006E736F6C65202D0A4553432F713A0971E2
:100770007569740A6D3A096D6F7573656B65790AF1
:10078000000A092D204D61676963202D0A443A094A
:100790004465627567204D65737361676520546FAA
:1007A00067676C650A583A094D617472697820442C
:1007B00065627567204D6F646520546F67676C656F
:1007C000202D2053686F77206B6579707265737385
:1007D000657320696E206D61747269782067726933
:1007E000640A4B3A094B6579626F61726420446513
:1007F00062756720546F67676C65202D2053686FA2
:1008000077206B65797072657373207265706F7293
:10081000740A4D3A094465627567204D6F757365BA
:1008200020546F67676C650A563A0956657273699A
:100830006F6E0A533A095374617475730A433A0927
:10084000416374697661746520436F6E736F6C6584
:10085000204D6F64650A46312D4631303A09537791
:100860006974636820746F204C6179657220302D43
:10087000392028463130203D204C30290A302D398E
:100880003A0953776974636820746F204C61796505
:100890007220302D390A47524156453A095377693B
:1008A00074636820746F204C617965722030202851
:1008B000616C7465726E617465290A423A094A7501
:1008C0006D7020746F20426F6F746C6F616465721D
:1008D0000A4553433A094A756D7020746F20426F80
:1008E0006F746C6F616465722028616C7465726EE0
:1008F000617465290A453A095072696E742045454C
:1009000050524F4D2053657474696E67730A425399
:10091000504143453A09436C656172204545505248
:100920004F4D0A000A002575002E6E6B726F3A203B
:10093000000A002575002E737761705F6261636B3A
:10094000736C6173685F6261636B73706163653A56
:1009500020000A002575002E737761705F67726151
:1009600076655F6573633A20000A002575002E6E78
:100970006F5F6775693A20000A002575002E73774E
:1009800061705F72616C745F726775693A20000A0A
:10099000002575002E737761705F6C616C745F6CFD
:1009A0006775693A20000A002575002E737761701B
:1009B0005F7263746C5F726775693A20000A002584
:1009C00075002E737761705F6C63746C5F6C677514
:1009D000693A20000A002575002E636170736C6F00
:1009E000636B5F746F5F636F6E74726F6C3A20003D
:1009F0000A002575002E737761705F636F6E7472E5
:100A00006F6C5F636170736C6F636B3A20000A00F8
:100A100025303258006B65796D61705F636F6E666B
:100A200069672E7261773A20000A002575002E6DE5
:100A30006F7573653A20000A002575002E6B657985
:100A4000626F6172643A20000A002575002E6D61A4
:100A5000747269783A20000A002575002E656E616F
:100A6000626C653A20000A002530325800646562E5
:100A700075675F636F6E6669672E7261773A2000F3
:100A80000A0025750064656661756C745F6C617938
:100A900065723A20003F000A6D6F7573653A206FEA
:100AA00066660A000A6D6F7573653A206F6E0A00FC
:100AB0000A6B6579626F6172643A206F66660A003C
:100AC0000A6B6579626F6172643A206F6E0A000A80
:100AD0006D61747269783A206F66660A000A6D610A
:100AE000747269783A206F6E0A000A6465627567ED
:100AF0003A206F66660A000A64656275673A206F7D
:100B00006E0A000A0A4A756D70696E6720746F205C
:100B1000626F6F746C6F616465722E2E2E200043BD
:100B20003E2000436C656172696E672045455052F6
:100B30004F4D0A006565636F6E6669673A0A005B30
:100B4000735D004B6579626F6172642073746172CA
:100B5000742E0A005B575D005B535D005B525D00C5
:100B60005B445D005B435D00040330000000120342
:100B7000480048004B00420020006D006F006400F8
:100B800000000C0371002E006D002E006B000000B1
:100B90000403090409025B00030100A0FA09040030
:100BA0000001030101000921110100012240000799
:100BB00005810308000A090401000103000000097F
:100BC00021110100012281000705820320000A098A
:100BD0000402000203000000092111010001222289
:100BE000000705830320000107050303200001120D
:100BF00001100100000008EDFEFECA04010102031D
:100C0000010631FF0974A1010975150026FF009541
:100C100020750881020976150026FF0095207508C9
:100C20009102C005010902A10185020901A1000587
:100C30000919012905150025019505750181029500
:100C400001750381010501093009311581257F9561
:100C5000027508810609381581257F95017508817F
:100C600006050C0A38021581257F95017508810655
:100C7000C0C005010980A101850319012AB700152B
:100C80000126B700950175108100C0050C0901A16E
:100C900001850419012AA002150126A002950175FB
:100CA000108100C005010906A101050719E029E727
:100CB00015002501950875018102950175088101CE
:100CC0000507190029FF150026FF00950675088104
:100CD0000005081901290595057501910295017511
:100CE000039101C011241FBECFEFDAE0DEBFCDBFFC
:100CF00004B603FE27C08091620290916302A09126
:100D00006402B09165028730904BA740B04BD1F49C
:100D100010926202109263021092640210926502B5
:100D200014BE84B7877F84BF0FB6F894A8958091CE
:100D30006000886180936000109260000FBEE0E068
:100D4000F8E3099511E0A0E0B1E0E8E1F9E502C0BF
:100D500005900D92AE38B107D9F722E0AEE8B1E0C8
:100D600001C01D92A236B207E1F70E94A3260C949F
:100D70008A2C0C940000FF93EF93E0918E01F09188
:100D80008F01309709F00995EF91FF910895FC01CB
:100D90008591803011F0EFDFFBCF0895FF27E0E26F
:100DA00030E247FF0CC0419597FF09C0EDE2609526
:100DB000709580959095611D711D811D911D27FF76
:100DC00002C0219530E350E2AA27660F771F881FE3
:100DD000991FAA1FA41710F0A41B63955A95A9F791
:100DE000AA3008F0A95FA05DAF93F3956115710576
:100DF0008105910541F7ED3211F4EF93F395F21768
:100E000018F43F93F395FBCF8F91B5DFFA95E1F797
:100E10000895E991F9918591803021F0853219F09A
:100E2000AADFF9CF089520E0E89455915532C1F337
:100E3000503311F4689455915A3348F4505390F359
:100E4000220F022E220F220F200D250FF4CF0EF4B9
:100E5000219589919991533619F3533729F15335D7
:100E600059F1BC0188279927E8945C3621F48991CF
:100E7000999168945591543639F446EF7EF077FF96
:100E80000DC08FEF9FEF0AC055374AE039F0583553
:100E900040E121F0523642E009F00895FF93EF93CC
:100EA0007DDFEF91FF91B7CFFF93EF93FC0181912D
:100EB0008030B9F360DFFBCFFF93EF9368DFF1CFB2
:100EC000DF93CF93CDB7DEB72596A3DFCF91DF9128
:100ED00008958FEF84B980E485B957985F9A2E9A68
:100EE0002F98E8E9F1E088E08E0F11928E13FDCF84
:100EF000E0E9F1E088E08E0F11928E13FDCF88E9D2
:100F000091E09093A3018093A20180E991E09093F6
:100F1000A1018093A001089508950C948C070F936C
:100F20001F93CF93DF938091A0019091A101209115
:100F3000A2013091A3013093A1012093A0019093CD
:100F4000A3018093A201C0E0D0E001E010E080E0C6
:100F500090E025B1207C2C2BAC0133E0440F551FD1
:100F60003A95E1F7242B25B9EAE1EA95F1F700C0BB
:100F7000E091A001F091A101EC0FFD1F208130E074
:100F8000082E02C0359527950A94E2F720FD2F9A86
:100F9000F5E3FA95F1F70000E6B52E982AE12A95D7
:100FA000F1F700C04091A2015091A301DA01AC0F0A
:100FB000BD1F4F9B0AC09801082E01C0220F0A9442
:100FC000EAF720953C91232308C06C919801082EE4
:100FD00001C0220F0A94EAF7262B2C9326B56E2F18
:100FE00070E02E1718F026B530E004C026B530E0CA
:100FF00021503F4F261B370B2630310558F0E0912A
:10100000A001F091A101EC0FFD1F2081FA01EC0F6E
:10101000FD1F20833AE13A95F1F700C02F982E9AF0
:10102000EBE2F1E03197F1F700C000000196883063
:10103000910509F08ECFA091A201B091A301AC0F50
:10104000BD1FE091A001F091A101EC0FFD1F9C914B
:101050008081981751F00E94511A6093A4017093F7
:10106000A5018093A6019093A7012196C830D105D0
:1010700009F06DCF80915902853021F0809159029D
:10108000811111C06091A4017091A5018091A60108
:101090009091A7010E94871A6131774281059105DD
:1010A00010F00E94C4190E94D00881E0DF91CF9116
:1010B0001F910F9108952091A2013091A301F90190
:1010C000E80FF11D808108950F931F93CF93DF9355
:1010D00088E091E00E94C706C0E0D0E00CEF10E08D
:1010E000E091A201F091A301EC0FFD1F80810E940D
:1010F000BD181F928F93DF93CF931F930F930E947E
:10110000600721960F900F900F900F900F900F9007
:10111000C830D10529F7DF91CF911F910F91089524
:101120000895089581E0089581E008950C9494084D
:101130001F93CF93DF9300D000D01F92CDB7DEB7BF
:1011400049835A832091BB0189819A81211112C060
:10115000662349F00E948817182F682F89819A8189
:101160000E942D1703C00E945C17182F69817A8195
:10117000812F04C00E94881769817A810F900F9097
:101180000F900F900F90DF91CF911F910C944D090C
:10119000FC01408151816281738184810C949808A3
:1011A0000C948D0708950C94D20881E008950C9456
:1011B000D508CF93C82F0E94D3088C2F0E94D70840
:1011C000CF91089508950E9453120E94E2082FEFD4
:1011D00084E39CE0215080409040E1F700C0000093
:1011E0000C94D91A0F931F93CF93DF93EC010E94B5
:1011F000C8088C01BE010E949608882309F442C0E9
:10120000BE01C8010E94C10B8823E1F1BE01C801E3
:101210000E94020C8823B1F1BE01C8010E942D0D6D
:10122000882381F18A81882331F101308CE5180708
:1012300051F00E3D8CE51807D9F001151C45D9F485
:101240000E94E3081FC080913102C82FC095C17071
:10125000C0FB80F980933102CC2329F089E292E02F
:101260000E94C7060FC087E192E00E94C7060BC02C
:101270000E947D1907C0CE01DF91CF911F910F9180
:101280000C949208C0E08C2FDF91CF911F910F91A9
:10129000089580E090E008950895E72FF0E098E049
:1012A000899FE00DF11D112483E0EE0FFF1F8A9549
:1012B000E1F7E60FF11DEE0FFF1FE95EFE4F85918E
:1012C00094910895880F991FFC01E65CFD4F85916C
:1012D00094910895CF93DF930E944D090E947D0A57
:1012E000EC01811520E59207F0F5811530E49307B4
:1012F00008F0CDC0883E910500F5803E910508F0CC
:10130000F8C0883A910570F4853A910508F09FC0BD
:101310008130910509F4EDC008F4E9C0049708F0A4
:10132000E8C0E5C08F3B910508F499C0803C910569
:1013300008F4DDC0805C91099DC0811540E29407EE
:1013400058F4C11581E0D80708F0D3C0C03FD105DB
:1013500008F4CDC0D065CDC0811520E3920708F018
:101360008DC09F7087C0811535E5930708F044C094
:10137000811544E5940708F0A1C0C11582E5D8079E
:1013800008F5C11521E5D20708F084C08C2F8370C1
:1013900021E030E002C0220F331F8A95E2F73C685B
:1013A000CE0174E0969587957A95E1F78370382B96
:1013B000CF70C695C69580E2C89FE0011124C22B6C
:1013C000D32B97C02C2F26952695CE018370992775
:1013D000C115D34508F063C040E2249F9001112459
:1013E000C1E0D0E002C0CC0FDD1F8A95E2F72C2BC4
:1013F0003D2BE901DC687DC0811549E59407A0F427
:10140000C11588E5D80708F05EC0C11526E5D207EA
:1014100008F06DC08C2F0E94110B8F71C82FD0E087
:10142000DC2FCC27D06265C081153AE5930708F41C
:101430004FC090568115904208F059C08D2F8F7182
:101440000E94110BDD27D0628F71D82B52C0C55A74
:10145000D0E0CF5BDE4FC881D0E0D0644AC0C85A2C
:10146000D0E0CC0FDD1FCD5EDE4F0990D881C02DBE
:10147000D4643FC00E946209EC013BC09927D3FFAE
:1014800003C0EC01D86C35C0EC01D06C32C0DF7009
:10149000D06A2FC0DC2FCC27C16FD06A2AC040E2AF
:1014A000249F90011124C1E0D0E002C0CC0FDD1FC9
:1014B0008A95E2F7C22BD32BDA681BC0D82FCC2732
:1014C000C46FD06A16C0DC2FCC27C06FD06A11C0A1
:1014D0008F700E94110B94E0D695C7959A95E1F70D
:1014E000CF70D0E0DC2FCC27D069C82B02C0C0E081
:1014F000D0E0CE01DF91CF9108958238910569F156
:10150000B0F48133910509F46DC048F48932910536
:1015100009F463C08A32910509F469C008958533DE
:10152000910509F455C089339105B9F00895833EBA
:10153000910569F138F4803E9105B1F0823E910544
:1015400009F10895863E9105A9F1873E9105B9F10B
:10155000843E910509F064C023C02091530220FD10
:101560004FC021FD4DC008958091530280FD44C0BD
:101570008091540280FF44C08091530284FD42C098
:1015800083EE4DC08091530282FF38C0F5CF809129
:10159000530282FD33C08091540280FD31C0ECCFF4
:1015A0008091540281FF32C08091530284FD2AC091
:1015B00087EE35C08091530283FF26C0F5CF80911E
:1015C000530283FD21C08091540281FD1FC0ECCFE6
:1015D0008091530285FD1CC01DC08091530285FD82
:1015E00019C016C08091530286FD16C017C08091A5
:1015F000530286FD13C010C089E311C082EE0FC0F4
:1016000080EE0DC080E00BC086EE09C084EE07C0FE
:1016100089E205C085E303C08AE201C081E390E06E
:1016200008959091530292FF0DC0282F2871283001
:1016300019F4877F846006C0282F2471243011F4A8
:101640008B7F886093FF0DC0282F2871283119F4F3
:10165000877E846106C0282F2471243111F48B7E8B
:1016600088612091540220FF0DC0382F3871383026
:1016700019F4877F816006C0382F3171313011F441
:101680008E7F886021FF0DC0282F2871283119F422
:10169000877E816106C0282F2171213111F48E7E51
:1016A000886194FD877E08950F931F93CF93DF93F6
:1016B000C62FD42F022FFC0182818823C9F06093AA
:1016C000AA010E94451A9093A9018093A80180E283
:1016D0008C0F883008F050C0C77081E001C0880FBF
:1016E000CA95EAF7DF91CF911F910F910C94A20F49
:1016F0001091AA01161330C08091A8019091A90100
:101700000E945D1A883C910538F5C0E2CD0F1D1787
:10171000B9F080E2810F883040F4177081E001C099
:10172000880F1A95EAF70E94A90FC83048F481E0A3
:101730009D2F977001C0880F9A95EAF70E94A20F1B
:10174000802F0E948F0FC830B8F4D77081E001C09D
:10175000880FDA95EAF70AC080E28C0F883060F4CF
:10176000C77081E001C0880FCA95EAF7DF91CF9179
:101770001F910F910C94A90FDF91CF911F910F91A1
:1017800008959C01CB01233F4CE53407F9F078F430
:10179000283DFCE53F07B9F0293D4CE5340711F140
:1017A000273D3C4531F526E241EE61EE1EC0253F66
:1017B000FCE53F0799F070F0263F3C45D1F427E265
:1017C00045EE66EE12C027E245EE0EC026E241EE7F
:1017D00060EE0BC027E245EE64EE07C026E241EE64
:1017E00062EE03C028E241E065EE0E94540B80E007
:1017F0000895FC018281882319F01092AA010895AE
:1018000081E00895CF93DF93EC01FB01828188236F
:1018100009F41FC1C230FCE5DF0708F41BC1C63163
:101820009CE5D90738F09E012A5F3C4529303105F7
:1018300008F010C10E94F018909354028093530254
:10184000C031ECE5DE0709F4C3C008F041C0C83080
:101850008CE5D80709F49AC0F0F4C430ECE5DE0753
:1018600009F487C068F4C2308CE5D80709F477C062
:10187000C330DC4509F0E3C080915302826076C03A
:10188000C630ECE5DE0709F46EC008F07BC080913D
:10189000530288606BC0CC308CE5D80709F485C052
:1018A00068F4CA30ECE5DE0709F474C008F079C0CA
:1018B0000E94531280915302806858C0CE308CE54C
:1018C000D80709F476C008F07FC0809153028BC01E
:1018D000CB3FECE5DE0709F44FC018F5C3318CE5CA
:1018E000D80709F47DC078F4C131ECE5DE0709F4CE
:1018F00073C0C231DC4509F0A2C00E94531280912E
:1019000053028F7733C0C5318CE5D80709F472C014
:1019100008F486C0CA3FDC4509F091C080915402AA
:101920003EC0CF3FFCE5DF0709F45FC058F4CD3F70
:101930009CE5D90709F444C008F43FC080915402E3
:1019400082602DC0C130FDE5DF0709F475C008F4E1
:101950005DC0C230DD4509F072C080E06EC080918C
:101960005302816003C080915302806180935302CF
:1019700066C08091530211C08091540282608093AE
:1019800054025DC0809153028062F0CF8091530277
:101990008064ECCF8091530288608460E7CF8160DF
:1019A000EECF809153028E7FE1CF809153028D7FE5
:1019B000DDCF80915302877FD9CF8091540218C028
:1019C000809154028D7FDBCF809153028F7ECECFEA
:1019D000809153028F7DCACF809153028F7BC6CFF7
:1019E00080915302877F8B7FC1CF809154028D7F7E
:1019F0008E7FC5CF8091530282FB222720F991E090
:101A0000922790FB82F990FB83F9B0CF809154022A
:101A1000982F909591708E7F892B90FB81F9AFCF95
:101A20000E9453128091530287FB222720F991E0F4
:101A3000922790FB87F99ACF81E00E947F198091CD
:101A40005302909154020E9401190E94531280E0A7
:101A500001C081E0DF91CF910895CF93DF9386316C
:101A60009C4541F5EB010E940818282F8A8140917E
:101A7000000150910101882379F02A7A91E009F45C
:101A800090E09093AB01911102C069E201C065E35F
:101A9000CA010E94B6190AC08091AB01811102C02F
:101AA00069E201C065E3CA010E94B8190E94541896
:101AB00080E001C081E0DF91CF9108959093B10162
:101AC0008093B0010895E091B001F091B101309799
:101AD00021F00190F081E02D099480E00895EF92CB
:101AE000FF920F931F93CF93DF93E091B001F0919A
:101AF000B1013097B1F18C010280F381E02D09959D
:101B00008091310282FF2DC080FF04C082E492E008
:101B10000E94C706E80118E08CE3E82E82E0F82E68
:101B20008091310280FF0BC088811F928F93FF92BA
:101B3000EF920E9460070F900F900F900F9011503E
:101B400021961111EDCF8091310280FF0AC08AE306
:101B500092E0DF91CF911F910F91FF90EF900C9445
:101B6000C706DF91CF911F910F91FF90EF900895DD
:101B7000E091B001F091B101309739F022E0DC0141
:101B80002C930480F581E02D099408952091AE01F5
:101B90003091AF018217930771F09093AF0180935A
:101BA000AE01E091B001F091B101309721F00680D3
:101BB000F781E02D099408952091AC013091AD0199
:101BC0008217930771F09093AD018093AC01E0917F
:101BD000B001F091B101309721F00084F185E02D42
:101BE0000994089585B7806885BF85B7806885BFEB
:101BF0000895089508950C94FA0D08950C94FD0D20
:101C00000E94F20D0E94F90D0C94FB0D81E00895E5
:101C10000E943C1A0E9469070E94411B0C94FE0D11
:101C2000CF93C82F8091310282FF1EC080FF04C075
:101C30008BE592E00E94C7068091310280FF0CC0C4
:101C40001F92CF9386E592E09F938F930E94600747
:101C50000F900F900F900F908091310280FF04C081
:101C600084E592E00E94C7068C2FCF910C94D9088E
:101C7000BF92CF92DF92EF92FF920F931F93CF9379
:101C8000DF93CDB7DEB72B970FB6F894DEBF0FBE4C
:101C9000CDBF0E948F070E94060E811111C08FEFE9
:101CA00089838A831B820E94451A8160782F9D83D5
:101CB0008C8349815A816B818D810E94CF0E42C0F5
:101CC00083EBC82E81E0D82E00E010E0B02E802FEC
:101CD0000E945B08F601E1906F01E82631F40F5F86
:101CE0001F4F0830110591F7DACF9091310291FF23
:101CF00004C08B870E9464088B8590E0FF24F394D6
:101D00002F2D2E21D1F09E83BF828F2191E009F4E7
:101D100090E098870E94451A8160782F9A8789877A
:101D20004E815F8168858A850E94CF0EF801ED544F
:101D3000FE4F8081F826F08205C09F5FFF0C98302F
:101D4000F9F6CDCF0E947F1E1091B2010E94630D63
:101D50001817A9F00E94630D8093B2012B960FB65D
:101D6000F894DEBF0FBECDBFDF91CF911F910F91D1
:101D7000FF90EF90DF90CF90BF900C94100E2B96B9
:101D80000FB6F894DEBF0FBECDBFDF91CF911F918C
:101D90000F91FF90EF90DF90CF90BF900895CF9379
:101DA000DF93CDB7DEB72B970FB6F894DEBF0FBE2B
:101DB000CDBF4F83588769877A878B87DE0111965D
:101DC00086E0FD0111928A95E9F785E0FE013796DC
:101DD00001900D928A95E1F749815A816B817C814E
:101DE0008D819E810E94FD142B960FB6F894DEBF64
:101DF0000FBECDBFDF91CF910895FC01808191810D
:101E00000E94C9170895CF93DF931F92CDB7DEB715
:101E1000882309F44CC0682F8CEF860F813A70F448
:101E2000862F69830E9416236981811140C08091A9
:101E30000001909101010E94B6190CC080E2860F4A
:101E4000883068F4677081E001C0880F6A95EAF70E
:101E50000E940B180F90DF91CF910C945418EBE572
:101E6000E60FE33050F4F0E0EE58FE4F808190E052
:101E70000F90DF91CF910C94C60DE8E5E60FE731A6
:101E800060F4F0E0EE0FFF1FEC5BFE4F808191816C
:101E90000F90DF91CF910C94DC0D603F40F0862FC6
:101EA0000E94051D0F90DF91CF910C94F21D0F90B1
:101EB000DF91CF910895882389F19CEF980F913A93
:101EC00040F4682F80910001909101010E94B8199F
:101ED0000DC090E2980F983058F4877091E001C0DF
:101EE000990F8A95EAF7892F0E9411180C945418BB
:101EF0009BE5980F933020F480E090E00C94C60DA1
:101F000098E5980F973120F480E090E00C94DC0D78
:101F1000803F20F00E946D1D0C94F21D0895CF9318
:101F2000C82F0E94030FC93349F42FEF87EE93E0C7
:101F3000215080409040E1F700C000008C2FCF91ED
:101F40000C945B0F882321F00E940B180C945418FA
:101F50000895882321F00E9411180C9454180895B4
:101F6000BF92CF92DF92EF92FF920F931F93CF9386
:101F7000DF937C01062FC72FFC01158112951F707E
:101F8000D281D1110E9428180E940118882379F06B
:101F9000DD2369F080E2800F883048F082E00E9403
:101FA0009F180E94011891E0B82EB92601C0B12CEB
:101FB000CC2EC2948FE0C822D12CF601EA5AFF4FF2
:101FC0000C942E2C8C2F807FCF70882311F0C2951B
:101FD000C07FDD2399F0CC2309F4CEC180E2800FCD
:101FE000883010F0011104C08C2F0E940B1803C020
:101FF0008C2F0E941B180E945418BEC1802F0E9473
:102000005B0FCC2309F4DDC180E2800F883010F033
:10201000011104C08C2F0E94111803C08C2F0E9444
:1020200021180E945418CDC18C2F807FCF70803230
:1020300011F0C295C07F002319F00130C9F022C011
:10204000DD2371F0112341F0113031F40E943B186F
:102050008C2B0E944118B5C10E943B188C2B1DC0CF
:10206000112319F0113009F4ACC10E944A1825C09F
:10207000DD2321F0163008F0A4C10EC0153008F0A1
:10208000A0C11BC0DD2361F0112331F0F701858170
:1020900080FF72C18F7085838C2F0E94A20F91C127
:1020A000112359F0093309F078C1FFEF27EE83E0DF
:1020B000F15020408040E1F76EC18C2F0E94A90FA3
:1020C00080C18C2F86958695837090E0009719F0DB
:1020D000019761F076C1DD2321F0802F9C2F937052
:1020E00002C080E090E00E94C60D76C1DD2321F0A1
:1020F000802F9C2F937002C080E090E00E94DC0D46
:102100006BC1DD23F9F0053F51F0063F71F0043F4C
:10211000A9F480914D0290914E0281600BC0809194
:102120004D0290914E02826005C080914D029091C7
:102130004E02846090934E0280934D02802F0E9445
:10214000051D1EC0053F51F0063F71F0043FA9F484
:1021500080914D0290914E028E7F0BC080914D0276
:1021600090914E028D7F05C080914D0290914E025C
:102170008B7F90934E0280934D02802F0E946D1DA5
:102180000E94F21D29C18C2F837009F049C0D11122
:102190001FC1402F429546954770440F440F602F52
:1021A0006F70862F90E0A0E0B0E0042E04C0880F8E
:1021B000991FAA1FBB1F0A94D2F704FF10C00FE09B
:1021C00010E020E030E004C0000F111F221F331F79
:1021D0004A95D2F7009510952095309503C000E000
:1021E00010E09801C695C695C370D0E0BC01CD0142
:1021F000602B712B822B932BC230D10559F0C33049
:10220000D10559F0219719F00E944216E1C00E94B1
:102210003016DEC00E945416DBC00E942E16D8C0B5
:10222000DD2319F08C2F817001C08695882309F475
:10223000CFC0402F429546954770440F440F602F02
:102240006F70862F90E0A0E0B0E0042E04C0880FED
:10225000991FAA1FBB1F0A94D2F704FF10C00FE0FA
:1022600010E020E030E004C0000F111F221F331FD8
:102270004A95D2F7009510952095309503C000E05F
:1022800010E09801C695C695C370D0E0BC01CD01A1
:10229000602B712B822B932BC230D10559F0C330A8
:1022A000D10559F0219719F00E94081791C00E949A
:1022B000F6168EC00E941A178BC00E94691688C03D
:1022C000CF70DD2339F08C2F0E948F16802F0E9453
:1022D000A20F7EC0802F0E94A90F8C2F0E94B016E3
:1022E00077C0023F01F128F4003F41F0013FA1F027
:1022F0003FC0033FF9F0043F39F13AC0DD2341F01C
:10230000153008F05EC08C2F8F710E94D51659C011
:10231000163008F056C0F7CFDD2339F08C2F8F71BF
:102320000E948F164EC0DD23C9F38C2F8F710E943F
:10233000B01647C0DD2329F08C2F8F710E947A16CA
:1023400040C00E9475163DC0DD2349F0CF718C2F2F
:102350000E948F1663E08C2F0E948A1832C081E0A1
:102360000E949F18123068F182E00E949F1829C0D5
:10237000DD2331F0112391F2802F0E94030F21C041
:10238000112399F2093349F49FEFE7EEF3E09150FE
:10239000E040F040E1F700C00000802F0E945B0F9A
:1023A00010C04C2F4F70602FC7010E9449090E9436
:1023B000A11512C04C2F4F70602FC7010E944C090D
:1023C0000BC028E0C21AD10884E0C816D10420F45A
:1023D0000E94630D0E94D908BB20D1F00E94FD1716
:1023E00080FD16C0F70112820E94F7170E948F1617
:1023F000C7010E9412120E94F717DF91CF911F911F
:102400000F91FF90EF90DF90CF90BF900C94B0169B
:10241000DF91CF911F910F91FF90EF90DF90CF90C0
:10242000BF9008950F931F93CF93DF93EC018881A2
:1024300099812B813C81232BB9F09F3F11F48F3F71
:1024400099F0CE010E94F208882371F068817981A9
:102450008A810E94D4178C010E942C170E942D168D
:10246000B801CE010E94B00FDF91CF911F910F9163
:1024700008950E9428180E9438180E9454180E943B
:102480001A1F0E94F21D80E090E00E94C60D80E0BD
:1024900090E00C94DC0D80910001909101010E946C
:1024A000BA190C9439120E9418180C944B12E92F87
:1024B000E295EF70F0E03297EE30F105B0F4EA59B2
:1024C000FF4F0C942E2C803F91F018F4883E68F456
:1024D0000EC0843F51F40BC0883E48F0813F29F480
:1024E00006C093FB882780F9089580E0089581E075
:1024F00008950E94C9170E9457120895CF93DF9341
:1025000000D000D01F92CDB7DEB70F900F900F9084
:102510000F900F90DF91CF910895CF93DF9300D06C
:1025200000D000D0CDB7DEB726960FB6F894DEBF48
:102530000FBECDBFDF91CF9108951F93CF93DF934F
:10254000C091BC0116E08091BD01C81799F0D0E0A0
:102550001C9FF0011D9FF00D1124E254FE4F40819D
:10256000518162817381848195810E948D122196AF
:10257000C770E9CFDF91CF911F9108954091EE018F
:102580005091EF016091F0017091F1018091F201A1
:102590009091F3010C948D128091F30182958F70CC
:1025A00009F054C08091F001882309F44FC0809154
:1025B000BC01A091BD016091EE017091EF014091CD
:1025C000F1015091F201B6E08A1709F43FC090E0A2
:1025D00041155105C1F17F3F11F46F3FA1F1B89F43
:1025E000F001B99FF00D1124E254FE4F21817213C6
:1025F0002AC02081621327C02281211124C0238197
:1026000034812417350710F421503109241B350B70
:10261000283C3105C0F42091F3012F7020612093F4
:10262000F30126E0289FF001299FF00D1124ED53BE
:10263000FE4F80818F70806180838EEE91E00E94DA
:1026400012120C949D1201968770BECF0895CF92FE
:10265000DF92EF92FF920F931F93CF93DF93CDB74B
:10266000DEB762970FB6F894DEBF0FBECDBF8C0108
:1026700085E0F801DE011D9601900D928A95E1F743
:10268000D8014C9111965C91119712966C9112970A
:102690001396CD90DC9014973091EE017091EF017C
:1026A0008091F1019091F201009709F46BC17F3F95
:1026B00019F43F3F09F466C1E090F001EE2009F4FF
:1026C000C0C02091F301C816D90628F0F601E81B16
:1026D000F90BCF0104C0809590958C0D9D1DFF24B2
:1026E000F394883C910578F0F12C207F09F0C6C066
:1026F0007C2DD98AC88A89890E947E128EEE91E04B
:102700000E941212B1C0822F807F09F046C075135B
:1027100014C0341312C0611110C02F7020612093B7
:10272000F3010E94BE128EEE91E00E94121280917F
:10273000F301D80115968C932EC0CD2819F15F3F77
:1027400011F44F3FF9F0F62E61111CC08091BC01CD
:102750002091BD0136E0821709F45AC090E0389FFD
:10276000F001399FF00D1124E254FE4F718157138F
:1027700006C07081471303C07281711103C00196B6
:102780008770E9CFF62E662309F427C18091F30103
:1027900081608093F301F12C20C1751308C03413BC
:1027A00006C0611104C08091F301D801C3C04D87F8
:1027B0005E878D859E856A8B0E9479126A8988233F
:1027C000E1F16623D1F12091F301822F82958F7080
:1027D00090E0029774F08091EE019091EF0198875C
:1027E0008F831986DB86CA862C87CE0107960E94C6
:1027F000121286E0F801AEEEB1E001900D928A95DA
:10280000E1F70E94CC120E94BE12FF24F394E5C0AF
:102810004D875E878D859E850E94C917292F229539
:102820002F7030E0223031050CF0CBC09F7009F0E2
:10283000C5C0805E883008F4D0C0C8010E94121262
:10284000E4CFC816D90608F453C0F601E81BF90B0B
:10285000CF01883C910508F450C0F12C7C2DD98A19
:10286000C88A89890E947E12EEEEF1E086E0DF01DF
:102870001D928A95E9F70E94BE12AFC0751314C06D
:10288000341312C0611110C08091F301F8018583E7
:10289000C8010E94121286E0EEEEF1E0DF011D9207
:1028A0008A95E9F7FE2C99C04D875E878D859E85B8
:1028B0006A8B0E9479126A89882309F4BECF662345
:1028C00009F4BBCF2091F301822F82958F7090E0A5
:1028D00002970CF48ECF8091EE019091EF019A83D4
:1028E00089831B82DD82CC822E83CE0101967FCF2D
:1028F000809590958C0D9D1DACCFF62E662309F426
:102900009CCF75132EC034132CC02091F30120FDF1
:102910001FC0822F82958F70D9F0D80115962C9305
:1029200015978F3049F08F5F982F9295907F822F67
:102930008F70892B15968C93C8010E94121286E025
:10294000F801AEEEB1E001900D928A95E1F793CFD8
:1029500086E0F801AEEEB1E001900D928A95E1F7C4
:102960003CC04D875E878D859E850E9479128111BE
:1029700040CF8091F30181608093F301C8010E94F0
:1029800012122BC0662309F458CF4D875E878D85C0
:102990009E850E947912F82E882309F44ECF86E096
:1029A000F801AEEEB1E001900D928A95E1F78EEE5E
:1029B00091E00E94FD0E0E94CC125DCF811139CFB3
:1029C0000CC0243031050CF038CF9F7009F431CFA2
:1029D000F8019581907F09F02CCF8F2D62960FB66C
:1029E000F894DEBF0FBECDBFDF91CF911F910F9145
:1029F000FF90EF90DF90CF9008951F93CF93DF93D8
:102A0000CDB7DEB72C970FB6F894DEBF0FBECDBFA3
:102A10004F83588769877A878B879C87CE01079673
:102A20000E942713882369F08F8198852A853B852A
:102A3000232BF1F19F3F09F063C08F3F09F060C085
:102A400037C086E0FE013796DE01119601900D92A7
:102A50008A95E1F76F817885EA85FB85309741F1AA
:102A60007F3F11F46F3F21F12091BD0130E0C9019A
:102A70000196877099274091BC0150E08417950713
:102A800009F447C069837A83FD83EC8396E0929FC3
:102A9000D001939FB00D1124A254BE4FFE01319678
:102AA00001900D929A95E1F78093BD010E949D12CD
:102AB00016E08091BC019091BD018917C1F1189F6A
:102AC000C001112482549E4F0E942713882379F15C
:102AD000E091BC011E9FF0011124E254FE4F4081A1
:102AE000518162817381848195810E948D128091D0
:102AF000BC0190E00196877099278093BC01D9CFE3
:102B00004F81588569857A858B859C850E948D12B9
:102B1000CFCF0E9453121092BD011092BC01EEEE75
:102B2000F1E086E0DF011D928A95E9F7C1CF2C968E
:102B30000FB6F894DEBF0FBECDBFDF91CF911F91CE
:102B40000895EF92FF920F931F93CF93DF938C0121
:102B5000892B09F46CC0F12CEE24E394E801219652
:102B6000F8018491843740F4843008F051C08130FA
:102B700081F0823019F15BC0853709F444C0A8F1B7
:102B80009CE7980F903708F052C08F770E945B0F38
:102B900041C00E5F1F4FFE01C49180E28C0F883050
:102BA00048F4C7708E2D01C0880FCA95EAF70E94BD
:102BB0002B1814C08C2F0E94030F2DC00E5F1F4FC7
:102BC000FE01C49180E28C0F883058F4C7708E2DBE
:102BD00001C0880FCA95EAF70E9431180E94541864
:102BE0001AC08C2F0E945B0F16C00E5F1F4FFE0194
:102BF000C491CC2381F08FE99FE00197F1F700C0E9
:102C00000000C150F6CF0E5F1F4FFE01F49003C0CD
:102C10000E94030F8E018F2D882309F49FCFEFE9C7
:102C2000FFE03197F1F700C000008150F5CFDF9150
:102C3000CF911F910F91FF90EF90089508950C94FC
:102C40001E160E941F16609320027093210280932B
:102C50002202909323020C94391208950C942116A9
:102C60000F931F93009120021091210220912202C4
:102C700030912302602B712B822B932B1F910F918C
:102C80000C9421160F931F930091200210912102A2
:102C90002091220230912302602371238223932307
:102CA0001F910F910C9421160F931F9300912002F6
:102CB0001091210220912202309123026027712776
:102CC000822793271F910F910C94211608950C943D
:102CD00066160E94671660931C0270931D02809313
:102CE0001E0290931F020C94391260E070E0CB0139
:102CF0000C9469160F931F9341E050E060E070E080
:102D00008A019B0104C0000F111F221F331F8A95E7
:102D1000D2F7C901B8011F910F910C9469160F9356
:102D20001F9341E050E060E070E004C0440F551F85
:102D3000661F771F8A95D2F780911C0290911D0221
:102D4000A0911E02B0911F028A019B01082B192B32
:102D50002A2B3B2BC901B8011F910F910C946916C6
:102D60000F931F9341E050E060E070E004C0440F17
:102D7000551F661F771F8A95D2F74095509560952D
:102D8000709580911C0290911D02A0911E02B0913D
:102D90001F028A019B01082319232A233B23C9010F
:102DA000B8011F910F910C9469160F931F9341E086
:102DB00050E060E070E004C0440F551F661F771FAD
:102DC0008A95D2F780911C0290911D02A0911E025B
:102DD000B0911F028A019B01082719272A273B2748
:102DE000C901B8011F910F910C9469160F931F939D
:102DF00000911C0210911D0220911E0230911F02B1
:102E0000602B712B822B932B1F910F910C946916C1
:102E10000F931F9300911C0210911D0220911E021E
:102E200030911F0260237123822393231F910F91FE
:102E30000C9469160F931F9300911C0210911D02B0
:102E400020911E0230911F0260277127822793274D
:102E50001F910F910C946916089528E0929F800DA0
:102E60001124A82FA695A695A695877051E001C0BC
:102E7000550F8A95EAF785E0A89FD001112420E03C
:102E800030E070E0F901EA0FFB1FEC50FE4F40818B
:102E9000CB01022E02C0969587950A94E2F78170C5
:102EA0009927819584278523842780832F5F3F4F2F
:102EB0002530310539F7089528E0929F800D1124BF
:102EC000682F669566956695982F977085E0689F40
:102ED000B001112440E050E080E0FA01E60FF71F56
:102EE000EC50FE4F208130E0092E02C03695279528
:102EF0000A94E2F721703327042E01C0220F0A94AE
:102F0000EAF7822B4F5F5F4F4530510531F7089547
:102F1000BF92CF92DF92EF92FF920F931F93CF93C6
:102F2000DF938C01C0902002D0902102E090220219
:102F3000F090230280911C0290911D02A0911E022C
:102F4000B0911F02C82AD92AEA2AFB2ACFE1D0E091
:102F5000D701C6010C2E04C0B695A7959795879505
:102F60000A94D2F780FF07C0BC2EB8018C2F0E94B4
:102F70006A09019719F4219758F7B12C8B2DDF912D
:102F8000CF911F910F91FF90EF90DF90CF90BF9066
:102F90000895CF93DF93EC010E948817BE010E9431
:102FA0006A09DF91CF9108951F93CF93DF93EB01CF
:102FB0009091BB01992321F0CB010E94C91713C046
:102FC000882349F0CB010E948817182F682FCE0163
:102FD0000E942D1704C0CB010E945C17182FBE0160
:102FE000812F0E946A09DF91CF911F9108958091EE
:102FF0002402859585958595089580912402877092
:10300000089590912402977081E009F480E008957A
:1030100080913002089590913002892B8093300284
:10302000089580959091300289238093300208950D
:1030300010923002089590912F02892B80932F02D5
:103040000895809590912F02892380932F020895EF
:1030500010922F02089590912E02892B80932E02B8
:103060000895809590912E02892380932E020895D1
:1030700010922E02089580912502089508950C94CF
:103080003E1890912502981721F0809325020C9408
:103090003F18089580912502882329F01092250277
:1030A00080E00C943F180895E0910001F091010137
:1030B000809130028083E0910001F09101019081C4
:1030C00080912F02892B8083E0910001F091010112
:1030D000908180912E02892B808380912502882304
:1030E00081F0E0910001F09101019081892B8083B2
:1030F00080910001909101010E94841981110E9428
:103100004A1880910001909101010C946F0D08956F
:103110000C94871898E0899F90011124262B209306
:1031200024020E948F1680912402859585958595AD
:103130000C9488181092240280E00C948818209136
:1031400024028095822380932402982F977079F42B
:1031500030E0482F082E000C550B2417350739F0A6
:103160008595859585950E94B0160C949A180895BA
:1031700090938F0180938E0108958295982F9C7C67
:10318000392F36953695282F237344E0249FC001AC
:103190001124932F982B292F2A7A2695892F85750C
:1031A000880F822B089580E090E00E94502C21E04F
:1031B0008C3E9E4F09F020E0822F089582E090E03F
:1031C0000C94482C682F82E090E00C94562C83E0FD
:1031D00090E00C94482C682F83E090E00C94562CDF
:1031E000CF9384E090E00E94482CC82F81E290E0C9
:1031F0000E94482C2C2F30E0A901582BCA01CF91F6
:103200000895CF93C92F682F84E090E00E94562C38
:103210006C2F81E290E0CF910C94562CAB01BC0155
:103220008FE090E00C94682CAB01BC0183E190E04E
:103230000C94682C60E070E0CB010C94141960E0F1
:1032400070E0CB010E940E190C941A196CEE7EEFFF
:1032500080E090E00E94742C60E082E090E00E94A8
:10326000562C60E083E090E00E94562C10922002E1
:1032700010922102109222021092230260E084E058
:1032800090E00E94562C60E081E290E00E94562C73
:1032900060E085E090E00E94562C60E086E090E0DF
:1032A0000E94562C6FEF87E090E00E94562C40E081
:1032B00050E0BA0188E090E00E94682C60E08DE068
:1032C00090E00E94562C40E050E0BA0188E190E086
:1032D0000E94682C60E087E190E00E94562C40E05C
:1032E00050E0BA018CE190E00E94682C60E080E23E
:1032F00090E00E94562C0C941F190C942619682FEC
:103300008EE090E00C94562CFC01329697E080E021
:10331000915029F021912223D9F38F5FF9CF08959D
:103320009C01FC0132969FEF80E04191461789F0A5
:103330009F3F19F4411101C0982F8F5F8630A9F784
:103340009F3F39F0F901E90FF11D97FDFA9562836E
:1033500008950895FC01329608962081261301C035
:1033600010823196E817F907C1F708950C94901967
:103370000C94AA19029626E0FC0111922A95E9F70D
:10338000089508950C94C1190E94C21980915902A0
:10339000843049F11092320220E488E190E00FB6C7
:1033A000F894A895809360000FBE2093600080E0A1
:1033B0000E94D9080E94C21983B7817F846083BFAD
:1033C00083B7816083BF7894889583B78E7F83BFEE
:1033D0000FB6F894A8958091600088618093600092
:1033E000109260000FBE0895CF930E9490080E9433
:1033F0008F070E949108C0E08C2F0E945B0881110A
:1034000004C0CF5FC830C1F701C081E0CF910895FB
:1034100008950C94081A0E9453120E94630D0E9492
:10342000D9080C94091A1F920F920FB60F9211240B
:103430008F939F93AF93BF9380913202811113C0FA
:1034400080914F0290915002A0915102B09152028E
:103450004196A11DB11D80934F0290935002A093FD
:103460005102B0935202BF91AF919F918F910F90F3
:103470000FBE0F901F90189582E084BD93E095BD1C
:103480009AEF97BD80936E0008952FB7F8948091BE
:103490004F0290915002A0915102B09152022FBF61
:1034A00008952FB7F89460914F0270915002809167
:1034B0005102909152022FBF0895CF92DF92EF9266
:1034C000FF920F931F932FB7F89440914F025091A2
:1034D000500260915102709152022FBF6A017B012C
:1034E000EE24FF248C0120E030E0C016D106E20675
:1034F000F30610F4415051099A01281B390BC901F8
:103500001F910F91FF90EF90DF90CF900895CF9291
:10351000DF92EF92FF920F931F932FB7F894C09012
:103520004F02D0905002E0905102F09052022FBF13
:1035300097018601061B170B280B390BC616D706F9
:10354000E806F90618F0C901B80106C0C901B801BA
:1035500061507109810991091F910F91FF90EF90BE
:10356000DF90CF90089578941F920F920FB60F922C
:1035700011248F939F93AF93BF9380914F029091AB
:103580005002A0915102B09152020196A11DB11DAD
:1035900080934F0290935002A0935102B093520235
:1035A000BF91AF919F918F910F900FBE0F901F9081
:1035B000189581E08093E00080E28093D80010921B
:1035C000C9008FE19EE40197F1F700C0000087E099
:1035D00090EBDC018093620290936302A0936402FB
:1035E000B09365029CE088E10FB6F894A8958093AB
:1035F00060000FBE90936000FFCFCF92DF92EF92FA
:10360000FF920F931F93CF93C0E0E82EF12C8C2FE5
:103610000E945B0800E010E0C82ED12CC601002EED
:1036200002C0959587950A94E2F780FD06C00F5F6A
:103630001F4F0830110591F70AC0602F7C2F80E0E2
:103640000E944D09E816F90691F781E004C0CF5FAA
:10365000C830E9F680E0CF911F910F91FF90EF9075
:10366000DF90CF900895CF93C82F8CE20E94FD1A6F
:10367000882321F08C2FCF910C94FD1A80E0CF91FC
:103680000895CF930E94D318811102C00E947D1922
:1036900085E792E00E94C706C5E6C15049F00E9446
:1036A0008F078FE39CE90197F1F700C00000F5CF89
:1036B0008EE692E00E94C70689E20E94331B8111C8
:1036C00020C18AE20E94331B81110E947D1985E08E
:1036D0000E94331B81110E94D91A0E94DE18809328
:1036E000310287E00E94331B8823A9F18BE10E94FD
:1036F000331B882351F08091310281FB222720F96E
:1037000091E0922790FB81F90EC08EE00E94331B5E
:10371000882361F08091310282FB222720F991E019
:10372000922790FB82F98093310215C080E10E94BC
:10373000331B90913102882341F093FB222720F91B
:1037400081E0822780FB93F904C0892F809580FB5C
:1037500090F990933102809131020E94E2180E9408
:10376000F018909354028093530280EE0E94331B12
:10377000882341F080915302982F909590FB80F917
:103780008093530289E30E94331B882359F0809170
:10379000530281FB222720F991E0922790FB81F9C7
:1037A0008093530282EE0E94331B882359F080914C
:1037B000530282FB222720F991E0922790FB82F9A5
:1037C0008093530286EE0E94331B882359F0809128
:1037D000530283FB222720F991E0922790FB83F983
:1037E0008093530283EE0E94331B882359F080910B
:1037F000530284FB222720F991E0922790FB84F961
:103800008093530285E30E94331B882359F08091F3
:10381000530285FB222720F991E0922790FB85F93E
:103820008093530281E30E94331B882359F08091D7
:10383000530286FB222720F991E0922790FB86F91C
:103840008093530281E10E94331B882359F08091B9
:10385000530287FB222720F991E0922790FB87F9FA
:103860008093530280915302909154020E94011957
:1038700087E20E94331BC82F8EE10E94331B811107
:10388000C2608FE10E94331B8111C46080E20E94FC
:10389000331B8111C86081E20E94331B8111C0611A
:1038A00082E20E94331B8111C06283E20E94331BBB
:1038B0008111C06484E20E94331B882311F0C06828
:1038C00002C0CC2329F08C2F0E94EB186C2F03C070
:1038D0000E94E718682F70E080E090E00E942E16AA
:1038E0008FE00E94331B882319F081E00E947F192A
:1038F00085E10E94331B882321F080E0CF910C9456
:103900007F19CF9108958091360280FF0BC060919E
:10391000050185E0689FB00111247595679575953F
:1039200067952BC081FF09C06091050185E0689F04
:10393000B00111247595679520C082FF07C0609182
:10394000050185E0689FB001112417C090913502F0
:103950009923D1F060910401961788F72091050111
:1039600085E0289F90011124929FA001939F500D04
:10397000112470E0CA010E941A2C6038710540F4CD
:103980006115710539F002C065E070E0862F089579
:103990008FE7089581E008958091360280FF08C086
:1039A0006091030170E0759567957595679521C0E5
:1039B00081FF06C06091030170E07595679519C09D
:1039C00082FF04C06091030170E010C09091350245
:1039D0009923C1F0609102019617A0F7809103012D
:1039E000899FC001112470E00E941A2C6038710573
:1039F00028F46115710521F0862F08958FE7089549
:103A000081E0089561E070E0F4CF803F21F40E94EE
:103A1000831C819504C0813F29F40E94831C8093FC
:103A20003A020895823F21F40E94831C819504C0CC
:103A3000833F29F40E94831C809339020895893FB3
:103A400019F40E94CC1C05C08A3F31F40E94CC1CA2
:103A5000819580933B0208958B3F21F40E94CC1CFA
:103A6000819504C08C3F29F40E94CC1C80933C02B9
:103A70000895843F21F480913802816017C0853F0A
:103A800021F480913802826011C0863F21F4809138
:103A9000380284600BC0873F21F48091380288602F
:103AA00005C0883F31F480913802806180933802EC
:103AB00008958D3F21F48091360281600BC08E3FC6
:103AC00021F480913602826005C08F3F29F48091F5
:103AD00036028460809336020895803F39F48091E5
:103AE0003A0287FF6CC010923A0269C0813F29F404
:103AF00080913A021816BCF362C090913902823F5D
:103B000029F497FF5CC01092390259C0833F19F421
:103B10001916CCF354C0893F41F480913B0218162A
:103B20000CF04DC010923B024AC08A3F29F48091AC
:103B30003B0287FF44C0F6CF8B3F39F480913C02B3
:103B400087FF3DC010923C023AC08C3F29F480911F
:103B50003C021816BCF333C0843F21F48091380234
:103B60008E7F17C0853F21F4809138028D7F11C070
:103B7000863F21F4809138028B7F0BC0873F21F470
:103B800080913802877F05C0883F31F480913802E8
:103B90008F7E8093380213C08D3F21F480913602CE
:103BA0008E7F0BC08E3F21F4809136028D7F05C041
:103BB0008F3F29F4809136028B7F8093360280916B
:103BC000390281110EC080913A0281110AC08091A0
:103BD0003B02811106C080913C02811102C010920B
:103BE000350208958091310283FF7EC081EB92E01F
:103BF0000E94C706809138021F928F938CEA92E050
:103C00009F938F930E9460078AEA92E00E94C70602
:103C100080913902282F082E000C330B3F938F938D
:103C200087EA92E09F938F930E94600785EA92E073
:103C30000E94C70680913A02282F082E000C330BF1
:103C40003F938F9382EA92E09F938F930E94600745
:103C500080EA92E00E94C70680913B02282F082E3E
:103C6000000C330B3F938F938DE992E09F938F93DA
:103C70000E9460078BE992E00E94C70680913C0297
:103C8000282F082E000C330B3F938F9388E992E086
:103C90009F938F930E94600785E992E00E94C70678
:103CA000809135021F928F9382E992E09F938F93C8
:103CB0000E94600780E992E00E94C7068091360268
:103CC0001F928F938DE892E09F938F930E946007DD
:103CD0008AE892E00E94C7068DB79EB74C960FB651
:103CE000F8949EBF0FBE8DBF87E392E00E94B80D8F
:103CF0000E94451A909334028093330208951F93D3
:103D0000CF93DF9380913302909134020E945D1A29
:103D1000AC0190913502992321F02091060130E009
:103D200006C0209107018AE0289F900111244217C4
:103D3000530708F47BC080913902C0913A02D091B8
:103D40003B0210913C02811107C0C1116BC0D1111F
:103D500069C0111167C06AC09F3F19F09F5F9093BF
:103D60003502181624F40E94831C80933902809136
:103D7000390287FF05C00E94831C81958093390218
:103D80001C1624F40E94831C80933A0280913A020C
:103D900087FF05C00E94831C819580933A02309171
:103DA00039023323E1F020913A022223C1F045EB9E
:103DB0003403C0011124892F990F990B009709F43E
:103DC00081E08093390235EB2303C0011124892F50
:103DD000990F990B009709F481E080933A021D1620
:103DE00024F40E94CC1C80933B0280913B0287FF0D
:103DF00005C00E94CC1C819580933B02111624F4CF
:103E00000E94CC1C80933C0280913C0287FF05C03D
:103E10000E94CC1C819580933C02DF91CF911F9131
:103E20000C94F21D9F3F09F099CFA1CFDF91CF9164
:103E30001F910895E7E3F2E086E0DF011D928A9585
:103E4000E9F71092350210923602089584ED94E05D
:103E50000E94C7061F9281E08F931F9285E08F9387
:103E600086E894E09F938F930E9460070F900F90D5
:103E70000F900F900F900F9008958330E9F128F480
:103E8000813061F0823009F10895853009F462C013
:103E900008F449C0863009F474C008958091070180
:103EA000262F30E0280F311D2F3F310524F4680FF5
:103EB0006093070103C08FEF809307018091070192
:103EC0001F928F938FEB93E072C080910601262F93
:103ED00030E0280F311D2F3F310524F4680F609327
:103EE000060103C08FEF80930601809106011F92A7
:103EF0008F938DEA93E05BC080910501262F30E01F
:103F0000280F311D2F3F310524F4680F6093050100
:103F100003C08FEF80930501809105011F928F935D
:103F20008AE993E044C080910401262F30E0280FF5
:103F3000311D2F3F310524F4680F6093040103C045
:103F40008FEF80930401809104011F928F9385E885
:103F500093E02DC080910301262F30E0280F311D02
:103F60002F3F310524F4680F6093030103C08FEFE6
:103F700080930301809103011F928F938CE693E05D
:103F800016C080910201262F30E0280F311D2F3FEF
:103F9000310524F4680F6093020103C08FEF809312
:103FA0000201809102011F928F9381E593E09F931C
:103FB0008F930E9460070F900F900F900F900895BD
:103FC000833081F128F4813059F08230D1F00895A6
:103FD000853009F449C0B8F1863009F456C0089517
:103FE00080910701681720F4861B8093070102C0A7
:103FF00010920701809107011F928F9382E493E052
:1040000054C080910601681720F4861B8093060136
:1040100002C010920601809106011F928F9380E3E7
:1040200093E043C080910501681720F4861B8093BC
:10403000050102C010920501809105011F928F9326
:104040008DE193E032C080910401681720F4861B53
:104050008093040102C010920401809104011F9218
:104060008F9388E093E021C080910301681720F4CA
:10407000861B8093030102C010920301809103010B
:104080001F928F938FEE92E010C08091020168170B
:1040900020F4861B8093020102C0109202018091DD
:1040A00002011F928F9384ED92E09F938F930E9461
:1040B00060070F900F900F900F900895CF93C82F27
:1040C0001F928F9389ED95E09F938F930E946007D5
:1040D00081E090E0A0E0B0E0BC01CD0104C0660F3B
:1040E000771F881F991FCA95D2F70E942E160F902E
:1040F0000F900F900F90CF910C945312CF93DF93AA
:104100008B3109F4F9C108F08FC18B3009F4B2C1C9
:1041100008F065C1863009F4B0C120F4853009F497
:10412000BEC16CC2873009F4CCC1883009F066C2C8
:1041300084E39BE00E94C70685E89AE00E94C706D8
:104140000E94E7181F928F9382E89AE09F938F93C3
:104150000E94600780E89AE00E94C7060E94DE186D
:10416000C82F8DE69AE00E94C7061F92CF9388E67B
:104170009AE09F938F930E94600786E69AE00E94E0
:10418000C7068CE59AE00E94C7068C2F81701F92AB
:104190008F9389E59AE09F938F930E94600787E54C
:1041A0009AE00E94C7068DE49AE00E94C706C1FB10
:1041B000882780F91F928F938AE49AE09F938F93C8
:1041C0000E94600788E49AE00E94C7068CE39AE0A8
:1041D0000E94C706C2FB882780F91F928F9389E34C
:1041E0009AE09F938F930E94600787E39AE00E9472
:1041F000C7068EE29AE00E94C706C3FBCC27C0F92F
:104200001F92CF938BE29AE09F938F930E94600757
:1042100089E29AE00E94C7060E94F018EC0185E14D
:104220009AE00E94C706DF93CF9380E19AE09F93C4
:104230008F930E9460078EE09AE00E94C70685EF88
:1042400099E00E94C7068C2F81701F928F9382EF96
:1042500099E09F938F930E9460078DB79EB78096D9
:104260000FB6F8949EBF0FBE8DBF80EF99E00E94FD
:10427000C70689ED99E00E94C706C1FB882780F92F
:104280001F928F9386ED99E09F938F930E94600712
:1042900084ED99E00E94C70682EC99E00E94C7066F
:1042A0008D2F81701F928F938FEB99E09F938F9347
:1042B0000E9460078DEB99E00E94C7068BEA99E0A7
:1042C0000E94C706D695D1701F92DF9388EA99E0C5
:1042D0009F938F930E94600786EA99E00E94C70629
:1042E00084E999E00E94C706C2FB882780F91F92E3
:1042F0008F9381E999E09F938F930E9460078FE8E5
:1043000099E00E94C7068DE799E00E94C706C3FBAB
:10431000882780F91F928F938AE799E09F938F9364
:104320000E94600788E799E00E94C7068EE699E040
:104330000E94C706C4FB882780F91F928F938BE6E3
:1043400099E09F938F930E94600789E699E00E940D
:10435000C70687E599E00E94C706C5FB882780F954
:104360001F928F9384E599E09F938F930E9460073B
:1043700082E599E00E94C70686E399E00E94C7069D
:10438000C6FB882780F91F928F9383E399E09F9360
:104390008F930E9460078DB79EB780960FB6F894F2
:1043A0009EBF0FBE8DBF81E399E00E94C70689E2E0
:1043B00099E00E94C706C7FBCC27C0F91F92CF9394
:1043C00086E299E09F938F930E94600784E299E0D0
:1043D0000E94C7060F900F900F900F9049C0803138
:1043E00009F4B4C020F48E3009F49AC007C18631B4
:1043F00009F4C7C0893109F001C18BE497E00E943C
:10440000C70683E297E00E94C7068DEE96E00E9401
:10441000C70685EB96E00E94C70685E796E00E94F6
:10442000C70687E496E08FC08A32E1F060F48732F5
:1044300009F4E0C028F48E3108F4E0C08D51DBC0EF
:10444000893269F1DBC0833448F48A3308F0D0C084
:10445000853309F4CFC0883369F0D0C0833409F4C0
:10446000C9C0CCC083E29BE00E94C7060E947D19B0
:10447000C1E0C9C081E897E066C080913102817FC8
:104480008E7F809331028AE597E00E94C7068FE114
:104490009BE00E94C70681E080933E02E9CF0E9424
:1044A000531283E09BE00E94C7069FEF23ED80E359
:1044B000915020408040E1F700C000000E94D91ACE
:1044C000D7CF80913102C82FC095C170C0FB80F951
:1044D00080933102CC2329F087EF9AE00E94C7062F
:1044E00092C08AEE9AE00E94C70680913102897FCD
:1044F000877F80933102BCCF9091310291FBCC2712
:10450000C0F981E0C827892FC0FB81F9809331026F
:10451000CC2319F08DED9AE029C08FEC9AE013C0FE
:104520009091310292FBCC27C0F981E0C827892FF6
:10453000C0FB82F980933102CC2319F080EC9AE021
:1045400015C080EB9AE00E94C70692CF909131028D
:1045500093FBCC27C0F981E0C827892FC0FB83F9E2
:1045600080933102CC2351F084EA9AE00E94C7067E
:104570008091310281608093310245C087E99AE0E1
:10458000E2CF89E396E00E94C7060E94630D1F9266
:104590008F938FE196E09F938F930E9460078091A5
:1045A00012011F928F9388E096E09F938F930E9451
:1045B000600780914B021F928F9385EF95E09F9348
:1045C0008F930E9460070E94511A9F938F937F934D
:1045D0006F938EED95E09F938F930E9460078DB748
:1045E0009EB742960FB6F8949EBF0FBE8DBF40CFC8
:1045F000895301C080E00E945E203ACF85E99AE0AD
:104600000E94C706C0E08C2FDF91CF91089580E013
:10461000089580E008958E518A3030F4E82FF0E05C
:10462000EB58FE4F8081089580E00895CF93C82F06
:1046300080913E02813059F020F0823009F445C06B
:1046400039C10E940818823209F036C104C00E94A4
:104650000818823261F48C2F0E940723811104C054
:104660008C2F0E947E202FC081E090E02CC08C2FE8
:104670000E940923811126C0C431E1F070F4CB30CF
:1046800081F0C031D1F40E94261F81ED95E00E9497
:10469000C70682E080933E0215C0C93259F0C83384
:1046A00061F48AE597E00E94C70685ED95E00E94D7
:1046B000C70608C010923E0201C18FEC95E00E942F
:1046C000C706FCC081E08170FBC0C43228F5CE3142
:1046D00008F0C1C0CB30A1F1D0F4C73009F0D0C090
:1046E0008EE18093070182E3809306018AE0809344
:1046F000050184E18093040188E08093030188E24E
:104700008093020185E794E00E94C706BCC0C331D4
:1047100049F1C431C1F0B4C0CB3409F4A6C028F4C7
:10472000C93289F0C83361F0ABC0C13509F49BC010
:10473000C23509F496C0CE3409F0A2C06AE09BC02D
:104740000E94261FA0C080913D02882319F010927C
:104750003D0299C082E894E00E94C70681E0809300
:104760003E02AEC08CE594E00E94C7068AE494E065
:104770000E94C706809107011F928F9387E494E0FF
:104780009F938F930E94600785E494E00E94C70680
:1047900083E394E00E94C706809106011F928F93E5
:1047A00080E394E09F938F930E9460078EE294E0F1
:1047B0000E94C7068FE194E00E94C7068091050120
:1047C0001F928F938CE194E09F938F930E946007D8
:1047D0008AE194E00E94C70689E094E00E94C7063F
:1047E000809104011F928F9386E094E09F938F93B2
:1047F0000E94600784E094E00E94C7068FEE93E079
:104800000E94C706809103011F928F938CEE93E064
:104810009F938F930E9460078AEE93E00E94C706E1
:1048200083ED93E00E94C706809102011F928F934F
:1048300080ED93E09F938F930E9460078EEC93E04E
:104840000E94C7068DB79EB748960FB6F8949EBFD4
:104850000FBE8DBF18C08C2F0E940B2380933D028A
:1048600012C061E003C061E006C06AE080913D02D1
:104870000E943D1F08C080913D020E94E01F03C0BE
:1048800083E794E013C080913D02882369F01F9272
:104890008F938DE694E09F938F930E9460070F9013
:1048A0000F900F900F9004C08AE694E00E94C70614
:1048B00081E006C010923E0280E002C080E003CF9B
:1048C000CF91089580914A0208959FB7F89410926D
:1048D00041029FBF90915902943009F057C09091C6
:1048E000E9009F703091EC00232F217030FD20E80B
:1048F000922B23E02093E9002091EB0020FF43C09E
:104900002091EE0027FF3FC020913F02222321F09B
:104910002091E80025FF37C010923F0226E0309139
:10492000E80035FD15C030915902343061F5309101
:10493000EB0035FD28C0215021F481E080933F0237
:1049400022C0EFE9FFE03197F1F700C00000E7CFA8
:104950008093F1008091E80085FD0AC08091E80015
:1049600080FFFCCF8091E8008E778093E80006C03E
:104970008FB7F89421E0209341028FBF9F709093EE
:10498000E90080E008959F709093E9008FEF08950B
:10499000CF93DF9300D01F92CDB7DEB7909159022D
:1049A000943019F589837B836A8382E08093E900E0
:1049B0008FEF9091E800815095FD06C095ED9A9596
:1049C000F1F700008111F5CF8091E80085FF0DC05F
:1049D00040E050E063E070E0CE0101960E94732752
:1049E0008091E8008E778093E8000F900F900F90F1
:1049F000DF91CF910895CF93DF93EC010E9456276A
:104A0000823011F0843031F4BE0184E0DF91CF9127
:104A10000C94C824DF91CF910895BC0183E00C94DD
:104A2000C824CF93DF93EC010E945627823011F007
:104A30008430F9F482E08093E9009FEF8091E800F0
:104A4000915085FD06C085ED8A95F1F70000911122
:104A5000F5CF8091E80085FF0CC040E050E066E0B3
:104A600070E0CE010E9473278091E8008E778093DA
:104A7000E800DF91CF910895CF93DF93EC010E947E
:104A80005627823011F0843039F581E08093E900B7
:104A90008FEF9091E800815095FD06C095ED9A95B5
:104AA000F1F700008111F5CF8091E80085FF14C077
:104AB00040E050E068E070E0CE010E9473278091F2
:104AC000E8008E778093E80088E0FE01A2E4B2E07F
:104AD00001900D928A95E1F7DF91CF91089584E6D8
:104AE0009BE00E94C70680915802811109C00E9474
:104AF00008290E9465298091E20084608093E20089
:104B0000089580E69BE00E94C7061092580208951F
:104B10008CE59BE00C94C70688E59BE00C94C706E7
:104B200084E59BE00E94C7060C940B1A209140027A
:104B30002F5F822F62E30E940E2C992319F020939D
:104B4000400208951092400280914102882371F141
:104B500080915902843041F58091E9008F70209155
:104B6000EC00922F917020FD90E8892B93E09093B8
:104B7000E9009091EB0090FF14C09091EE0097FF38
:104B800010C09091E80095FF03C01092F100F9CF9A
:104B90009091E80090FF05C09091E8009E77909377
:104BA000E8008F708093E90010924102089542E07E
:104BB00061EC81E00E94822842E261EC82E00E9486
:104BC000822842E261EC83E00C94822880915B02AF
:104BD000833009F460C030F4813071F0823009F420
:104BE00099C008958A3009F485C08B3009F46BC0F0
:104BF000893009F0A7C020C080915A02813A09F09B
:104C0000A1C08091E800877F8093E80080915E02D8
:104C100090915F02892B21F468E082E492E003C066
:104C200060E080E090E070E00E94BE278091E800A4
:104C30008B778093E800089580915A02813209F0C1
:104C400081C080915E0290915F02029708F07AC065
:104C50008091E800877F8093E8008091E80082FDE2
:104C600005C0809159028111F8CF6CC02091F300EA
:104C70008091F20090E0922B029729F48091F1004C
:104C80008B7F813021F48091F10080934A028091E2
:104C9000E8008B7753C080915A02813A09F052C0E4
:104CA00080915E0290915F02892B09F04BC0809148
:104CB000E800877F8093E8008091E80080FFFCCFC8
:104CC0008091120136C080915A028132D9F58091CB
:104CD0005E0290915F02892BA9F58091E800877FA1
:104CE0008093E8000E94B72880915C0280931201B3
:104CF0000C94531280915A02813221F58091E80080
:104D0000877F8093E8000E94B72880915D0280939E
:104D10004B02089580915A02813AA1F48091E800F3
:104D2000877F8093E8008091E80080FFFCCF80912E
:104D30004B028093F1008091E8008E778093E80029
:104D40000C94B728089584B7877F84BF0FB6F89472
:104D5000A895809160008861809360001092600047
:104D60000FBE90E080E80FB6F894809361009093B6
:104D700061000FBE0E94000E0E9408290E94652952
:104D80008091E20084608093E20085E694E20E94D4
:104D9000B81878940E94F32B0E94080E88E091E0E6
:104DA0000E945E0D83E49BE00E94C7068091590239
:104DB000853089F48FE39BE00E94C7060E94C419E6
:104DC00080915702882391F30E94F419882371F38C
:104DD0000E945D27EBCF0E94380EE8CF0C94F0269E
:104DE000292F332723303105C9F064F421303105F0
:104DF00081F02230310509F049C08BE590E024E9CB
:104E00003BE048C02132310521F12232310571F1F8
:104E10003DC082E190E02FEE3BE03CC0992781301D
:104E2000910571F02CF4892B89F5E0E9FBE00DC0C8
:104E30008230910541F0039749F5E8E6FBE005C0B3
:104E4000E2E8FBE002C0EEE6FBE0849190E09F0127
:104E500021C063307105D0F4660F771FFB01E8575E
:104E6000FE4F2081318189E090E014C063307105EC
:104E700068F4FB01EE0FFF1FEE57FE4F20813181DA
:104E8000FB01E158FE4F808190E004C080E090E09B
:104E900020E030E0FA0131832083089580915902A7
:104EA000843011F081E0089582E0089580914C02F1
:104EB000811102C00C944E27089580E189BD82E1E2
:104EC00089BD09B400FEFDCF8091D8008F7D80930D
:104ED000D8008091E00082608093E0008091E00043
:104EE00081FDFCCF0895CF92DF92EF92FF920F9356
:104EF0001F93CF93DF93EC018B016A010E94D628A8
:104F0000811133C0C114D10439F0F601808191813F
:104F1000081B190BC80FD91FE12CF12C0115110525
:104F200019F18091E80085FD16C08091E8008E7728
:104F30008093E800C114D10449F0F6018081918189
:104F4000E80EF91EF182E08285E00FC00E94D628AB
:104F5000882321F30AC089918093F100015011093F
:104F6000FFEFEF1AFF0ADACF80E0DF91CF911F91B8
:104F70000F91FF90EF90DF90CF9008952091600205
:104F8000309161022617370748F06115710539F431
:104F90002091E8002E772093E80001C0B90140E09D
:104FA00061157105A9F120915902222309F443C02A
:104FB000253009F442C02091E80023FD40C0209133
:104FC000E80022FD32C02091E80020FFE9CF4091A7
:104FD000F3002091F20030E0342BFC01CF01611589
:104FE000710559F02830310540F481918093F1002A
:104FF000615071092F5F3F4FF1CF41E028303105FB
:1050000009F040E02091E8002E772093E800C8CF17
:105010004111C9CF0AC080915902882361F08530BF
:1050200061F08091E80083FD0AC08091E80082FF72
:10503000F2CF80E0089582E0089583E0089581E052
:10504000089520916002309161022617370748F0D9
:105050006115710539F42091E8002E772093E8005E
:1050600001C0B901FC0120E06115710591F1809149
:105070005902882309F440C0853009F43FC080916B
:10508000E80083FD3DC08091E80082FD2FC0809143
:10509000E80080FFE9CF2091F3008091F20090E0DA
:1050A000922B6115710559F08830910540F42491D7
:1050B0002093F1003196615071090196F2CF21E001
:1050C000089709F020E08091E8008E778093E8004F
:1050D000CBCF2111CCCF0AC080915902882361F037
:1050E000853061F08091E80083FD0AC08091E8007E
:1050F00082FFF2CF80E0089582E0089583E0089572
:1051000081E00895982F973058F59093E90098170B
:1051100039F07091EC002091ED005091F00003C047
:10512000242F762F50E021FF19C03091EB003E7FF5
:105130003093EB003091ED003D7F3093ED003091E6
:10514000EB0031603093EB007093EC002093ED00A6
:105150005093F0002091EE0027FF07C09F5FD3CF50
:105160008F708093E90081E0089580E00895809138
:105170005A0287FF11C08091E80082FD05C080912E
:1051800059028111F8CF11C08091E8008B770BC0D4
:1051900080915902882349F08091E80080FFF8CF80
:1051A0008091E8008E778093E80008952091E400D4
:1051B0003091E50095E64091EC00842F817040FF2E
:1051C00022C08091E80080FD1CC080915902882394
:1051D00091F0853091F08091EB0085FD10C04091F9
:1051E000E4005091E5004217530729F39A019150CA
:1051F00011F784E0089582E0089583E0089581E046
:10520000089580E008954091E80042FFDECF0895C0
:105210000E9476290E947E29E0EEF0E08081816084
:105220008083E8EDF0E080818F77808319BCA7ED63
:10523000B0E08C918E7F8C9380818F7E80831092E2
:10524000580208950F931F93CF93DF930E947629FE
:105250000E947E29C8EDD0E088818F77888388817D
:105260008068888388818F7D888319BC1092590259
:1052700010925502109257021092560200EE10E062
:10528000F80180818B7F808388818160888342E000
:1052900060E080E00E948228E1EEF0E080818E7F75
:1052A0008083E2EEF0E0808181608083808188608D
:1052B0008083F80180818E7F8083888180618883EC
:1052C000DF91CF911F910F910895E8EDF0E080817B
:1052D0008F7E8083E7EDF0E080818160808384E0D1
:1052E00082BF81E0809358020C942229E8EDF0E01F
:1052F00080818E7F80831092E20008951092DA0000
:105300001092E10008951F920F920FB60F92112490
:105310002F933F934F935F936F937F938F939F93BD
:10532000AF93BF93EF93FF938091E10082FF0BC097
:105330008091E20082FF07C08091E1008B7F809323
:10534000E1000E9496258091DA0080FF1FC08091C5
:10535000D80080FF1BC08091DA008E7F8093DA0036
:105360008091D90080FF0DC080E189BD82E189BDB7
:1053700009B400FEFDCF81E0809359020E946F25A1
:1053800005C019BC109259020E9481258091E1004C
:1053900080FF19C08091E20080FF15C08091E2007B
:1053A0008E7F8093E2008091E20080618093E20032
:1053B0008091D80080628093D80019BC85E08093EA
:1053C00059020E948C258091E10084FF30C08091B9
:1053D000E20084FF2CC080E189BD82E189BD09B46F
:1053E00000FEFDCF8091D8008F7D8093D800809102
:1053F000E1008F7E8093E1008091E2008F7E8093B8
:10540000E2008091E20081608093E2008091550289
:10541000882311F084E007C08091E30087FD02C07B
:1054200081E001C083E0809359020E949025809121
:10543000E10083FF29C08091E20083FF25C08091B5
:10544000E100877F8093E10082E08093590210920F
:1054500055028091E1008E7F8093E1008091E2000F
:105460008E7F8093E2008091E20080618093E20071
:1054700042E060E080E00E9482288091F000886035
:105480008093F0000E948825FF91EF91BF91AF912A
:105490009F918F917F916F915F914F913F912F914C
:1054A0000F900FBE0F901F9018951F920F920FB67E
:1054B0000F9211242F933F934F935F936F937F939A
:1054C0008F939F93AF93BF93CF93DF93EF93FF930C
:1054D000C091E900CF708091EC00D82FD17080FD91
:1054E000D0E81092E9008091F000877F8093F0006F
:1054F00078940E94992A1092E9008091F0008860C7
:105500008093F000CD2BCF70C093E900FF91EF9115
:10551000DF91CF91BF91AF919F918F917F916F91CB
:105520005F914F913F912F910F900FBE0F901F9061
:1055300018951F93CF93DF93CDB7DEB7AA970FB619
:10554000F894DEBF0FBECDBFEAE5F2E088E08E0F33
:105550009091F10091938E13FBCF0E94E6258091EC
:10556000E80083FF28C180915A0290915B02492F85
:1055700050E04A30510508F01EC1FA01EC58FF4FC7
:105580000C942E2C803821F0823809F014C108C008
:105590008091560290915702992389F082600FC042
:1055A00080915E028F70873008F005C18093E9001A
:1055B0008091EB0085FB882780F91092E90090919B
:1055C000E800977F9093E8008093F1001092F1003B
:1055D000D0C0282F2D7F09F0EEC0882319F082302B
:1055E00061F0E9C080915C02813009F0E4C0933041
:1055F00009F080E0809357022EC080915C028111F7
:105600002AC080915E028F702FEF280F263008F09D
:10561000D2C08093E9002091EB0020FF1CC09330A2
:1056200021F48091EB00806214C09091EB009061B6
:105630009093EB0021E030E0A90102C0440F551F18
:105640008A95E2F74093EA001092EA008091EB001D
:1056500088608093EB001092E9008091E800877FDA
:105660008093E8000E94B728A6C08111A4C01091C1
:105670005C021F778091E3008078812B8093E300A8
:105680008091E800877F8093E8000E94B72880918E
:10569000E80080FFFCCF8091E30080688093E30006
:1056A000111102C082E001C083E08093590283C0DF
:1056B0008058823008F07FC080915C0290915D023A
:1056C0008C3D53E0950779F583E08A838AE28983EC
:1056D0004FB7F894DE01139620E03EE051E2E32F4D
:1056E000F0E050935700E49120FF03C0E295EF7083
:1056F0003F5FEF708E2F90E0EA3010F0C79601C048
:10570000C0968D939D932F5F243149F74FBF8091B1
:10571000E800877F8093E8006AE270E0CE0101969E
:105720000E94BE2715C060915E0270915F02AE01BB
:105730004F5F5F4F0E94EE26BC01892BE1F19091F3
:10574000E800977F9093E80089819A810E94212840
:105750008091E8008B778093E8002DC0803859F560
:105760008091E800877F8093E800809155028093C4
:10577000F1008091E8008E7773CF81111CC0909169
:105780005C029230C0F48091E800877F8093E8004B
:10579000909355020E94B72880915502811106C04E
:1057A0008091E30087FD02C081E001C084E0809326
:1057B00059020E94D7258091E80083FF0AC080919A
:1057C000E800877F8093E8008091EB0080628093FF
:1057D000EB00AA960FB6F894DEBF0FBECDBFDF91E7
:1057E000CF911F910895CF93809159028823A1F002
:1057F000C091E900CF709091EC00892F817090FDED
:1058000080E8C82B1092E9008091E80083FD0E9497
:10581000992ACF70C093E900CF910895991B79E040
:1058200004C0991F961708F0961B881F7A95C9F730
:105830008095089597FB072E16F4009407D077FD06
:1058400009D00E94342C07FC05D03EF49095819538
:105850009F4F0895709561957F4F0895EE0FFF1F3C
:105860000590F491E02D0994AA1BBB1B51E107C0E0
:10587000AA1FBB1FA617B70710F0A61BB70B881FE0
:10588000991F5A95A9F780959095BC01CD0108956F
:10589000F999FECF92BD81BDF89A992780B50895F8
:1058A000A8E1B0E042E050E00C947C2C262FF9995E
:1058B000FECF92BD81BDF89A019700B4021639F06F
:1058C0001FBA20BD0FB6F894FA9AF99A0FBE089540
:1058D0000396272F0E94572C0E94562C252F0E949A
:1058E000572C242F0C94572C0196272F0E94572CAD
:1058F0000C94562CDC01CB01FC01F999FECF06C0BB
:10590000F2BDE1BDF89A319600B40D92415050407D
:08591000B8F70895F894FFCFE9
:1059180026022808140A321E62243C2511250D256A
:10592800FB2401E200E900EA00B500B600B700CDAB
:10593800008301CC008A01920194012102230224F0
:10594800022502260227022A02B300B4006F007063
:1059580000818283E200E900EA00B500B600B700E2
:10596800CD008301CC008A01920194012102230217
:1059780024022502260227022A02B300B4006F007F
:1059880070008182830102030405060708090040AC
:0E5998008122A40C230C010CA60BBF0BD80B14
:00000001FF
